:020000040800F2
:10000000E0470020E9020008CF1C00086B19000837
:10001000CD1C000843050008D320000800000000A4
:10002000000000000000000000000000290200089D
:10003000450500080000000085020008191D0008A1
:100040000303000803030008030300080303000878
:100050000303000803030008030300080303000868
:100060000303000803030008030300080303000858
:100070000303000803030008030300080303000848
:100080000303000803030008030300080303000838
:100090000303000803030008030300080303000828
:1000A0000303000803030008030300080303000818
:1000B0000303000803030008030300080303000808
:1000C00003030008030300080303000803030008F8
:1000D00003030008030300080303000803030008E8
:1000E00003030008030300080303000803030008D8
:1000F00003030008030300080303000803030008C8
:1001000003030008030300080303000803030008B7
:100110000303000803030008ED1D000803030008A3
:100120000303000803030008030300080303000897
:100130000303000803030008030300080303000887
:100140000303000803030008030300080303000877
:100150000303000803030008030300080303000867
:100160000303000803030008030300080303000857
:100170000303000803030008030300080000000055
:10018000030300080303000800F002F800F03CF845
:100190000AA090E8000C82448344AAF10107DA45E2
:1001A00001D100F031F8AFF2090EBAE80F0013F0F8
:1001B000010F18BFFB1A43F0010318476C2B000016
:1001C0008C2B0000103A24BF78C878C1FAD85207A7
:1001D00024BF30C830C144BF04680C6070470000C1
:1001E0000023002400250026103A28BF78C1FBD840
:1001F000520728BF30C148BF0B6070471FB502F0DF
:100200006DFD1FBD10B510BD00F061F91146FFF77F
:10021000F5FF01F06FFF00F07FF903B4FFF7F2FF85
:1002200003BC00F087F900002C4B19680868B0E89F
:10023000F04F80F30988BFF36F8F4FF0000080F319
:10024000118870470000000008480068006880F3CB
:1002500008884FF0000080F3148862B661B6BFF3DF
:100260004F8FBFF36F8F00DF00BF00BF08ED00E0CE
:10027000DFF80C00016841F470010160704700BFB5
:1002800088ED00E0EFF30980BFF36F8F134B1A681E
:100290001EF0100F08BF20ED108A20E9F04F10600B
:1002A00009B44FF0500080F31188BFF34F8FBFF3B4
:1002B0006F8F02F04BFB4FF0000080F3118809BCF8
:1002C00019680868B0E8F04F1EF0100F08BFB0ECD6
:1002D000108A80F30988BFF36F8F704714000020E5
:1002E000EFF3058070470000094880470948004740
:1002F000FEE7FEE7FEE7FEE7FEE7FEE7FEE7FEE7D6
:10030000FEE7FEE704480549054A064B7047000032
:10031000DD1D000889010008E0410020E0470020C1
:10032000E0430020E043002053EA020C00F0698023
:100330002DE9F04B4FF00006002B1FBFB3FA83F5F9
:1003400003FA05F424FA05F65E4012BF1643B2FA2A
:1003500082F502FA05F4C5F120051EBF22FA05FC5C
:1003600044EA0C04203556EA044C4FEA144418BF02
:10037000641C4FF000084FF00009904271EB030C31
:1003800039D3002919BFB1FA81F701FA07F6B0FA9B
:1003900080F700FA07F6C7F120071EBF20FA07FC16
:1003A00046EA0C062037B6FBF4FCA7EB0507103F26
:1003B00007F01F0BCBF120060CFA0BFB2CFA06F60C
:1003C00044BFB3460026202FA4BF5E464FF0000B6B
:1003D0005BEA060C08BF4FF0010B19EB0B09ABFBF6
:1003E000027C48EB0608C01B06FB02CC0BFB03CCCF
:1003F00071EB0C01C1E70B46024641464846BDE899
:10040000F08B13B54FF000004FF00001AFF3008008
:10041000BDE81C40704710B5203AC0F00B80B1E831
:100420001850203AA0E81850B1E81850A0E8185029
:10043000BFF4F5AF5FEA027C24BFB1E81850A0E832
:10044000185044BF18C918C0BDE810405FEA827C4C
:1004500024BF51F8043B40F8043B08BF7047D20763
:1004600028BF31F8023B48BF11F8012B28BF20F804
:10047000023B48BF00F8012B70474FF0000200B567
:10048000134694469646203922BFA0E80C50A0E8B7
:100490000C50B1F12001BFF4F7AF090728BFA0E865
:1004A0000C5048BF0CC05DF804EB890028BF40F831
:1004B000042B08BF704748BF20F8022B11F0804F73
:1004C00018BF00F8012B704770477047704775469A
:1004D00000F02CF8AE4605006946534620F00700B0
:1004E000854618B020B5FFF70DFFBDE820404FF05E
:1004F00000064FF000074FF000084FF0000B21F00E
:100500000701AC46ACE8C009ACE8C009ACE8C009DA
:10051000ACE8C0098D46704710B50446AFF30080C3
:100520002046BDE81040FFF778BE00000048704745
:100530007C41002001491820ABBEFEE726000200E6
:100540007047FEE7704772B6FEE700002DE9F84FEE
:10055000DFF8BCA10022012503264FF00F090AF1A4
:10056000040BAAF1040E00BF0B6805FA02F4234045
:10057000A34270D10F7907F00307012F01D0022F9A
:1005800016D187684FEA420806FA08FC27EA0C07EA
:10059000D1F80CC00CFA08FC4CEA070CC0F808C0F3
:1005A0004768A7430C79C4F3001494403C4344606B
:1005B0000C79E443A4070AD0C4684FEA420C06FA57
:1005C0000CF7BC438F6807FA0CF72743C7600C7918
:1005D00004F00304022C12D1D40800EB840CDCF8E4
:1005E00020405707FF0E09FA07F824EA0804D1F85B
:1005F000108008FA07F848EA0408CCF8208004685C
:100600004FEA420C06FA0CF7BC430F7907F00307D8
:1006100007FA0CF7274307604C6814F4403F70D08A
:100620003C4C276847F480472760246822F0030782
:1006300004F480440094384C07EB040CDCF80848C0
:1006400097074FEA177809FA08F7BC43334FB842C7
:1006500002D1002724E054E0314FB84201D10127F4
:100660001EE0304FB84201D1022719E02E4FB842A8
:1006700001D1032714E02D4FB84201D104270FE028
:100680002B4FB84201D105270AE02A4FB84201D1C9
:10069000062705E0284FB84201D1072700E00827C8
:1006A00007FA08F72743CCF80878DAF800405746ED
:1006B000D1F804C09C435FEACC2C00D51C433C60BD
:1006C000DBF800405F46D1F804C09C435FEA8C2C05
:1006D00000D51C433C60DEF800407746D1F804C0EA
:1006E0009C435FEA8C3C00D51C433C60084F083FAC
:1006F0003C68D1F804C09C435FEACC3C00D51C4365
:100700003C60521C102AFFF42FAFBDE8F88F0000A8
:10071000083C0140443802400030014000000240E3
:100720000004024000080240000C02400010024099
:100730000014024000180240001C02400AB181610E
:1007400070470904FBE7000001488068704700001B
:100750000400002070B5040025D094F83D00002569
:1007600020B984F83C50204600F0B8F8242084F8E2
:100770003D002068016821F00101016020680168E6
:1007800041F4004101602068016821F400410160EA
:1007900000F05EFA4D4A6168914201D84C4900E090
:1007A0004C49884201D2012070BD4B492368B0FBFF
:1007B000F1F15E6826F03F060E435E606368934287
:1007C00006D94FF4967359434FF47A73B1FBF3F1A2
:1007D0002368491C1E6A26F03F063143196261688E
:1007E000914210D84900401EB0FBF1F2521CC2F3F6
:1007F0000B02042A01D2042022E0B0FBF1F0401CDD
:10080000C0F30B001CE0A268F2B301EBC10303EBE1
:100810000116431EB3FBF6F35B1C43F480431B0538
:1008200049D092B301EBC10202EB0111401EB0FBB3
:10083000F1F0401CC0F30B0040F4804040F4004055
:100840002168CA694CF6FF739A431043C861D4E922
:10085000071001432068026822F0C00211430160C2
:10086000D4E9030101432068826848F2FF339A43C8
:1008700011438160D4E9050108432168CA6822F068
:10088000FF021043C86001E00EE016E02068016836
:1008900041F0010101602564202084F83D002563BA
:1008A00084F83E50002070BD01EB4106431EB3FBAF
:1008B000F6F35B1CB3E70120C2E701EB4101401EE8
:1008C000B0FBF1F0401CC0F30B00B7E7A0860100BD
:1008D00080841E0000093D0040420F0010B586B024
:1008E000044614216846FFF7C8FD14492068884271
:1008F00021D113480021026842F002020260006820
:1009000000F0020005904FF4407000901220CDE9F5
:100910000101032003900420049069460948FFF771
:1009200015FE07481030016841F4001101600068AD
:1009300000F40010059006B010BD00000054004007
:1009400030380240000402400248816802781144B5
:1009500081607047040000200B4810B5016841F425
:1009600000710160016841F480610160016841F437
:1009700080710160032000F09FF80F2000F006F85E
:1009800000F050F8002010BD003C024030B5054694
:100990001F4887B00024016841F010010160006821
:1009A00006A900F01000009001A800F031F90498A9
:1009B000A8B100F04DF940001649174AB0FBF1F11B
:1009C0001648491E026040F2E732C0E90324C0E93C
:1009D0000114846100F0A8FB040003D015E000F0CE
:1009E00037F9E9E70D4800F0EFFB04000DD13620A0
:1009F00000F034F8102D07D200222946362000F0EE
:100A00003BF80748056000E0012407B0204630BDF0
:100A10004038024040420F000010004044040020D3
:100A2000080000200C4882B0016841F48041016058
:100A3000006800F4804000900748001F016841F002
:100A4000805101600068002200F0805000900F216A
:100A5000901E02B000F010B844380240002809DBB4
:100A600000F01F02012191404009800000F1E020C8
:100A7000C0F8001170470000F0B40E4B1B680C4624
:100A8000C3F30223C3F10705042D00D90425191D62
:100A9000072901D2002300E0DB1E012606FA05F13A
:100AA000491E214099409E40761E16403143F0BCBD
:100AB00001F010BB0CED00E0064900F007020868E9
:100AC0004FF6FF03184040EA0220034A1043086033
:100AD000704700000CED00E00000FA052DE9F0473A
:100AE0000E46050065D0DFF81481D8F80000F7B293
:100AF00000F00700B04207D288F80070D8F8000074
:100B000000F00700B04254D128683D4C810712D54F
:100B1000400703D5206840F4E050206028780007A3
:100B200003D5206840F4604020602068A96820F068
:100B3000F000084320602878C0072DD0304968684D
:100B40000839012812D0022813D0032811D00968CF
:100B5000890700292DDA216821F003010143216072
:100B6000FFF7F2FD814641F2883A0EE009688903F9
:100B7000EFE709688901ECE7FFF7E6FDA0EB090163
:100B8000514502D90320BDE8F0872068696800F06C
:100B90000C00B0EB810FEFD1D8F80010404601F007
:100BA0000701B14207D90770006800F00700B042A2
:100BB00001D00120E7E72878400705D52068E968DB
:100BC00020F4E050084320602878000706D520680C
:100BD000296920F4604040EAC100206000F048F834
:100BE0002168084AC1F30311515CC84006490860F6
:100BF00006480068FFF7CAFE0020C4E7003C024038
:100C000008380240042D00081000002008000020D1
:100C10000F2202600C4A136803F003034360136859
:100C200003F0F0038360136803F4E053C3601268B9
:100C30004FF4E05303EAD20202610448006800F076
:100C4000070008607047000008380240003C02407E
:100C50000448054900680968044AC1F38221515CCF
:100C6000C84070471000002008380240142D0008CA
:100C7000154810B5006810F00C02144813D0144940
:100C8000042A0FD0082A0ED10F4C241F2268236893
:100C900002F03F025B0207D52068C0F38810A0FB7A
:100CA000010106E0084610BD2168C1F38811A1FBCF
:100CB00000010023FFF738FB2168C1F30141491C03
:100CC0004900B0FBF1F010BD083802400024F400E8
:100CD00040787D012DE9F84F04006ED02078DFF8D0
:100CE0004C93C007A9F104054AD009F1040001683A
:100CF000C1F38101012908D00068C0F381000228F6
:100D00000AD1D9F80000400206D52868800337D5FB
:100D100060680028E1D033E06068B0F5803F10D013
:100D2000B0F5A02F286810D020F480302860286803
:100D300020F4802028606068A8B1FFF705FD064612
:100D40000DE0286840F48030F4E740F4802028600B
:100D5000F7E700BFFFF7F8FC801B642873D828680A
:100D60008003F7D50CE0FFF7EFFC064605E000BF77
:100D7000FFF7EAFC801B6428F0D828688003F7D4CA
:100D80002078DFF8AC8280074FF0000A3ED5A748F4
:100D9000001D016811F00C0F08D00068C0F381003D
:100DA00002280BD1D9F80000400207D42868800738
:100DB00016D5E068012800D112E033E1E068B8B14F
:100DC0000120C8F80000FFF7BFFC064605E000BFA1
:100DD000FFF7BAFC801B0228C0D828688007F7D527
:100DE0002868216920F0F80040EAC10028600DE081
:100DF000C8F800A0FFF7A8FC064604E0FFF7A4FC33
:100E0000801B02281FD828688007F7D420780007A5
:100E100022D5864F87486169703771B10121016021
:100E2000FFF792FC064604E0FFF78EFC801B0228C9
:100E300009D838688007F7D50EE0C0F800A0FFF7A2
:100E400083FC064605E082E0FFF77EFC801B02285B
:100E50007DD838688007F7D42078400768D5DFF858
:100E6000CCB100270BF13C0BDBF80000C0000BD429
:100E7000DBF8001041F08051CBF80010DBF80000E7
:100E8000012700F0805000906B4E3068C00510D4F0
:100E9000306840F480703060FFF756FC009005E049
:100EA000FFF752FC0099401A022850D83068C0055C
:100EB000F6D55E4EA0686C3601280FD00528306844
:100EC00010D020F001003060306820F00400306065
:100ED000A068B8B1FFF738FC00900FE0306840F030
:100EE0000100F4E740F004003060F7E7FFF72CFC66
:100EF0000099411A41F28830814266D830688007F3
:100F0000F4D50EE0FFF720FC009007E0FFF71CFC93
:100F10000099411A41F28830814256D830688007E2
:100F2000F4D42FB1DBF8001021F08051CBF8001081
:100F3000A069C8B33D49091D0968C1F381010229AF
:100F40004AD00228504607D0C8F8600000E03CE0D4
:100F5000FFF7FAFB04463BE04746C8F86000FFF79E
:100F6000F3FB064605E000BFFFF7EEFB801B0228FF
:100F70002BD828688001F7D4D4E907010843A16A77
:100F80002E4A490802EB0141626A41EA8211084394
:100F900094F82C1040EA0161C9F80010012038666D
:100FA000FFF7D2FB044606E03EE000BFFFF7CCFBB4
:100FB000001B022809D828688001F7D534E000BF5B
:100FC000FFF7C2FB001B022802D90320BDE8F88FFF
:100FD00028688001F4D427E00128F7D0D9F8000070
:100FE000E26900F4800191421CD1226A00F03F01C5
:100FF000914217D147F6C071626A0140B1EB821F7E
:1010000010D1A26A4FF0FF3300F4403103EB5202DB
:10101000B1EB024F06D194F82C1000F07060B0EBE9
:10102000016F01D00120D1E70020CFE70438024052
:1010300000004742800E4742007000400000FFFF62
:101040007047704710B590F83C20012A22D0012249
:1010500080F83C20CA688C6822F4407222434C68B5
:1010600022F4806222430C6822F4006222430C695D
:1010700022F4805222434C6922F400522243C9696F
:10108000002322F480420A4301684A6480F83C301D
:10109000002010BD022010BD70B590F83C20012A40
:1010A00032D0012480F83C40022280F83D200368C1
:1010B0005A689D6822F070060A6832435A60134BE2
:1010C00002689A4214D0B2F1804F11D0104B9A426C
:1010D0000ED0104B9A420BD00F4B9A4208D00F4BB8
:1010E0009A4205D00E4B9A4202D00E4B9A4204D13E
:1010F000496825F080031943916080F83D40002144
:1011000080F83C10084670BD022070BD0000014010
:101110000004004000080040000C004000040140B2
:10112000004001400018004010B5040003D094F8BE
:101130003D0010B107E0012010BD002084F83C0004
:10114000204600F01FF8022084F83D00211D206891
:1011500000F052FE012084F8460084F83E0084F836
:101160003F0084F8400084F8410084F8420084F88D
:10117000430084F8440084F8450084F83D000020D2
:1011800010BD000008B500680C49884208D10C4821
:10119000016841F001010160006800F001000BE00E
:1011A0000849884209D10648001F016841F004013E
:1011B0000160006800F00400009008BD00000140DC
:1011C000443802400008004090F83D10012901D049
:1011D00001207047022180F83D100168CA6842F082
:1011E0000102CA6000681149884214D0B0F1804FF2
:1011F00011D00F4988420ED00E4988420BD00E49BB
:10120000884208D00D49884205D00D49884202D055
:101210000C49884204D1816801F00701062903D0F6
:10122000016841F0010101600020704700000140A9
:101230000004004000080040000C00400004014091
:10124000004001400018004070B5044690F83C0092
:101250000025012817D0012684F83C60022084F87C
:101260003D002068826822F0770222F47F4282608B
:101270000868502838D00DDC20284FD005DC90B30A
:10128000102811D14AE0022070BD302846D04028F5
:101290000AD13BE060282FD070280DD0B0F5805FD8
:1012A00003D0B0F5005F12D0012584F83D60002026
:1012B00084F83C00284670BDCB68D1E90121206844
:1012C00000F00FFE2068816841F0770109E0CB68EB
:1012D000D1E90121206800F004FE2068816841F412
:1012E00080418160E1E719E0CA684968206800F040
:1012F000CDFE5021206806E0CA684968206800F0E9
:10130000D6FE6021206800F0F6FDCEE7CA68496885
:10131000206800F0BBFE40212068F4E72268014607
:101320001046F0E72DE9F0410D46040003D094F893
:101330003D0018B108E00120BDE8F081002084F8EC
:101340003C00204600F040F8022084F83D00206870
:10135000816844F2070291438160211D206800F0FA
:101360004BFD226890689169166A2B68AF69034348
:1013700040F20330814341EA0721A868EF6908433E
:101380004FF6FC418843E96840EA07200143286999
:101390002F6A000140EA0730084369686D6926F04A
:1013A000AA0646EA0515294393602268906154F81D
:1013B000460B0162012004F81F09E0752076E076F3
:1013C0002077A0750020B7E770B586B004461421D9
:1013D0006846FFF752F8214A256800231F49103A52
:1013E00002241F48B5F1804F1ED01E4EB54219D1C0
:1013F0000D6845F002050D60096801F002010591D4
:10140000116841F001011160116801F001010591BD
:10141000C0210091CDE90143CDE90334694600BF05
:10142000FFF794F806B070BD0D6845F001050D603A
:10143000096801F001010591116841F00101116095
:10144000116801F00101059103210091CDE90143EB
:101450000121CDE903316946E2E70000403802404E
:10146000000002400004004070B590F83E60044661
:1014700090F83F5090F8423090F84320022021B17C
:1014800004290ED0012E1BD114E0012E18D1012BFE
:1014900016D184F83E0084F8420001220021206821
:1014A00020E0012D0CD1012A0AD184F83F0084F8F4
:1014B000430014E0012D03D1012B01D1012A01D0F9
:1014C000012070BD84F83E0084F83F0084F842009B
:1014D00084F8430001220021206800F0F5FC01227D
:1014E0000421206800F0F0FC2068016841F001014F
:1014F0000160002070BD70472DE9F041044600688E
:10150000C66805694FF00007A90713D5B10711D5C3
:10151000F91E01610120207720688069800720463C
:1015200002D0FFF7E8FF04E000F0EBF8204600F0FF
:10153000ABF92777680716D5700714D521686FF0C7
:1015400004000861022020772068806910F4407F41
:10155000204602D0FFF7CFFF04E000F0D2F820468B
:1015600000F092F92777280715D5300713D52168A1
:101570006FF008000861042020772068C0698007A8
:10158000204602D0FFF7B7FF04E000F0BAF820468B
:1015900000F07AF92777E80616D5F00614D5216809
:1015A0006FF010000861082020772068C06910F4EF
:1015B000407F204602D0FFF79EFF04E000F0A1F834
:1015C000204600F061F92777E80708D0F00706D039
:1015D00021686FF001000861204600F0BBF9280681
:1015E00008D5300606D521686FF0800008612046D6
:1015F000FFF726FD680608D5700606D521686FF04E
:1016000040000861204600F0AFF9A8060AD5B006F0
:1016100008D521686FF0200008612046BDE8F04140
:10162000FFF70FBDBDE8F08110B586B00446142168
:101630006846FEF722FF2368184C0020184A022152
:10164000A34212D1136843F010031360126802F032
:10165000100205924FF420620092CDE90110039030
:101660000120049069460F4813E00F4CA34212D1A9
:10167000136843F008031360126802F00802059231
:101680004FF470420092CDE9011003910491694634
:101690000648FEF75BFF06B010BD000000000140E9
:1016A000303802400010024000080040000C0240A8
:1016B00070B5044690F83C00002501280FD00120A9
:1016C00084F83C006AB1042A0FD0082A11D00C2AF1
:1016D00013D00125002084F83C00284670BD02206C
:1016E00070BD206800F010FCF4E7206800F03CFCBE
:1016F000F0E7206800F06EFCECE7206800F09EFC4C
:10170000E8E7704710B5040003D094F83D0010B12D
:1017100007E0012010BD002084F83C00204600F0C6
:101720001EF8022084F83D00211D206800F064FBB3
:10173000012084F8460084F83E0084F83F0084F8D5
:10174000400084F8410084F8420084F8430084F8A3
:10175000440084F8450084F83D00002010BD704727
:1017600070B5044690F83C0000260D4601280FD0C5
:10177000012084F83C006AB1042A1DD0082A2FD029
:101780000C2A3FD00126002084F83C00304670BD72
:10179000022070BD206800F0B7FB2068816941F02D
:1017A000080181612068816921F00401816120685C
:1017B00081692A69114311E0206800F0D5FB206897
:1017C000816941F4006181612068816921F480614F
:1017D0008161206881692A6941EA02218161D2E739
:1017E000206800F0F7FB2068C16941F00801C16181
:1017F0002068C16921F00401C1612068C1692A69BA
:10180000114311E0206800F019FC2068C16941F41F
:101810000061C1612068C16921F48061C1612068F3
:10182000C1692A6941EA0221C161ACE710B504002F
:1018300003D094F83D0010B107E0012010BD002056
:1018400084F83C00204600F01EF8022084F83D0099
:10185000211D206800F0D0FA012084F8460084F8A9
:101860003E0084F83F0084F8400084F8410084F88A
:10187000420084F8430084F8440084F8450084F86A
:101880003D00002010BD70477047000010B50446B1
:10189000022249B104290ED0082913D094F841003E
:1018A000012816D0012010BD94F83E000128F9D17E
:1018B00084F83E200FE094F83F000128F2D184F82C
:1018C0003F2008E094F840000128EBD184F8402044
:1018D00001E084F841200122206800F0F5FA164961
:1018E0002068164A884201D0904203D1436C43F4E9
:1018F000004343642068884213D0B0F1804F10D079
:101900000F4988420DD00F4988420AD00E498842BB
:1019100007D0904205D00D49884202D00C49884238
:1019200004D1816801F00701062903D0016841F064
:1019300001010160002010BD0000014000040140D1
:101940000004004000080040000C0040004001403E
:101950000018004000680349884201D1FEF7F4BF37
:1019600070470000001000407047FEE700B587B0E8
:101970001C2206496846FEF74EFD0021684600F02D
:1019800065FC0349086007B000BD0000E82C0008B2
:101990000000002030B587B014216846FEF76DFDC9
:1019A0001D480024016841F010010160016801F048
:1019B00010010591016841F080010160016801F0AA
:1019C00080010591016841F001010160016801F0A9
:1019D00001010591016841F008010160016801F011
:1019E00008010591016841F00201016000680B4D9A
:1019F00000F00200059000223C212846FEF79EFEE2
:101A00003C2000900120CDE901046946284603945A
:101A1000FEF79CFD07B030BD303802400010024098
:101A20000D4810B50B4901600C49416000214FF48D
:101A300080428160C0E9031241618161C16101623C
:101A4000FEF788FE002803D0BDE81040FEF77BBDFE
:101A500010BD000000540040D0020020A08601000C
:101A600010B596B000240F9410941194129413940E
:101A70001C2168461494FEF700FD202107A8FEF7FC
:101A8000FCFC2B482949C0E9001441F26701C0E978
:101A90000241046144618461FFF746FB08B1FEF72F
:101AA00052FD4FF480500F900FA92148FFF7CCFB57
:101AB00008B1FEF748FD1E48FFF724FE08B1FEF707
:101AC00042FD139413A91A481494FFF7E5FA08B1DC
:101AD000FEF739FD00940194029403940494059454
:101AE0000022694612480694FFF7E2FD08B1FEF7AE
:101AF0002AFD042269460E48FFF7DAFD08B1FEF719
:101B000022FD0794089409944FF400500A94CDE9FB
:101B10000B4007A906480E94FFF794FA08B1FEF7A8
:101B200012FD0348FFF780FD16B010BD0000014014
:101B30002403002010B58CB024216846FEF79DFCDC
:101B40000024154809944FF080410A94C0E900141C
:101B50004FF6FF71C0E90241046184610120CDE9C3
:101B60000004CDE902040494CDE9054007946946D8
:101B700009480894FFF7D6FB08B1FEF7E4FC099486
:101B800009A905480A94FFF787FA002801D0FEF753
:101B9000DAFC0CB010BD00006C03002010B58CB056
:101BA00024216846FEF769FC00241548099413496E
:101BB0000A94C0E900144FF6FF71C0E902410461C4
:101BC00084610120CDE90004CDE902040494CDE94B
:101BD0000540079469460A480894FFF7A3FB08B13B
:101BE000FEF7B1FC099409A905480A94FFF754FAD5
:101BF000002801D0FEF7A7FC0CB010BD0004004087
:101C0000B403002010B58EB0002407940894099402
:101C10000A940B941C2168460C94FEF72EFC2A486B
:101C2000284901605321C0E9011444F61F61C0E94D
:101C300003148461FFF778FA08B1FEF784FC4FF4CF
:101C40008050079007A92048FFF7FEFA08B1FEF779
:101C50007AFC1D48FFF7EAFD08B1FEF774FC0B940F
:101C60000BA919480C94FFF717FA08B1FEF76BFCA3
:101C70006020CDE9000402940022694612480494D1
:101C8000FFF76EFD08B1FEF75EFC042269460E48C0
:101C9000FFF766FD08B1FEF756FC082269460A48C0
:101CA000FFF75EFD08B1FEF74EFC0C2269460648C0
:101CB000FFF756FD08B1FEF746FC0348FFF7B4FCFA
:101CC0000EB010BD00080040FC030020FEE7FEE758
:101CD0000F4E104D40F63404012204213046FEF729
:101CE0002DFD002208213046FEF728FD012210219B
:101CF0003046FEF723FD002220213046FEF71EFD70
:101D000028684463286884630A2000F093FAE3E7B4
:101D1000001002402403002010B5502080F31188E9
:101D2000BFF34F8FBFF36F8F00F010FF18B104495E
:101D30004FF080500860002080F3118810BD000033
:101D400004ED00E030B593B030216846FEF795FB16
:101D500014210CA8FEF791FB1E480025016841F0F4
:101D600080510160006800F0805011901A480168AD
:101D700041F4804101600068022400F48040119029
:101D800001200090000401908001CDE90640192057
:101D900008904FF4A870CDE9090404200B90684620
:101DA000FEF798FF08B172B6FEE70CA90F2081E894
:101DB00031004FF4A0500F904FF480501090052147
:101DC0000CA8FEF78BFE002801D072B6FEE713B018
:101DD00030BD0000403802400070004002480168F9
:101DE00041F470010160704788ED00E00148FFF7A1
:101DF00083BB000044040020F0B50268274B284D47
:101E0000284E294F294C4FF0804C984209D060450C
:101E100007D0A84205D0B04203D0B84201D0A042BA
:101E200004D122F0700E4A6842EA0E0298421BD09A
:101E3000604519D0A84217D0B04215D0B84213D08F
:101E4000A04211D01A4DA8420ED01A4DA8420BD074
:101E5000194DA84208D0194DA84205D0184DA842E6
:101E600002D0184DA84203D122F44075CA682A4313
:101E70004D6922F080022A438D68C5620D68856233
:101E8000984201D0A04201D109690163016841F083
:101E900004010160012141610260F0BD00000140C8
:101EA0000004004000080040000C00400004014015
:101EB000004001400044014000480140001800403B
:101EC000001C00400020004010B501F01F0301215C
:101ED000046A99408C430462016A9A40114301628A
:101EE00010BD10B5846842EA032224F47F440A43FB
:101EF0002243826010BD826822F070020A4342F0E1
:101F00000701816070470000F0B5036A026A22F0A1
:101F10000102026242688469124E24F073050C6863
:101F20002C4323F002058B682B430D4DA84201D0B2
:101F3000B04205D123F00807CB683B4323F00403EC
:101F4000A84201D0B04205D14D6922F44072154338
:101F50008A692A4342608461496841630362F0BD33
:101F60000000014000040140F0B5026A036A23F05A
:101F700010030362436884690D6824F4E64444EA6C
:101F800005248D6822F0200242EA05120F4D104E02
:101F9000A84201D0B04206D1CF6822F0800242EAC6
:101FA000071222F04002A84201D0B04207D14D6989
:101FB00023F4406343EA85038D6943EA8503436064
:101FC0008461496881630262F0BD00000000014045
:101FD00000040140F0B5026A036A23F480730362CF
:101FE0004368C46922F4007224F073050C68124E31
:101FF0002C438D6842EA05220E4DA84201D0B04222
:1020000006D1CF6822F4006242EA072222F48062FD
:10201000A84201D0B04207D14D6923F4405343EAAE
:1020200005138D6943EA05134360C4614968C163C0
:102030000262F0BD000001400004014030B5046AB6
:10204000026A22F4805202624268C3690D6823F476
:10205000E64343EA05238D6824F4005444EA05343A
:10206000084DA84202D0084DA84204D14D6922F47F
:10207000804242EA85124260C36149680164046299
:1020800030BD0000000001400004014010B5036AAB
:10209000046A24F001040462846924F0F00444EA30
:1020A000021423F00A020A438461026210BD10B5D3
:1020B000036A046A24F010040462846923F0A00314
:1020C00024F4704444EA023243EA0111826101625D
:1020D00010BDFEE70907090E002804DB00F1E0202F
:1020E00080F80014704700F00F0000F1E02080F845
:1020F000141D704708B5FEF72FFCFFF723FEFFF70E
:1021000049FCFFF7ADFCFFF715FDFFF747FDFFF7B3
:1021100079FDFFF785FC00213D48FFF7B7FB04215F
:102120003B48FFF7B3FB3A480068416C41F400417B
:10213000416438480021026842F0100202600068E1
:1021400000F01000009033481430026842F00102A1
:102150000260006800F0010000902F48026822F43D
:1021600040220260026842F400220260426A22F0C9
:10217000F0024262426A42F010024262026822F4B5
:1021800040020260026842F400020260426A22F4E5
:1021900070424262426A42F480524262826842F471
:1021A0004C0282601D480160816241F26701C16298
:1021B00001214161816921F070018161816941F0F2
:1021C00060018161816921F4E0418161816941F4AB
:1021D000C0418161816940F6080211438161016A51
:1021E00041F011010162416C41F400414164016818
:1021F00041F0010101603C210948FFF735F93C211C
:102200000848FFF731F9FFF7B1FB00F01AF8FEE7D5
:10221000240300203038024000100240000001403A
:102220006C030020B403002001460020842900D064
:10223000C81C704710B500B9012000F023FB002036
:1022400010BD10B500F044FB002010BD7FB50D4659
:1022500004464169B0F9080081B1A16971B1FFF785
:10226000E3FFD4E905128DE80700D4E900102B46FE
:10227000226900F040FC039004B070BDFFF7D4FF6A
:1022800003A9CDE90001208A2B4682B2D4E90010CF
:1022900000F004FC012801D00020EDE70398EBE7F3
:1022A0002DE9F041184C0F460546E6682068001DF0
:1022B00000F020FA38B9206890F82C1001208840EE
:1022C000216981432161681C07D137B12168BDE8CC
:1022D000F0410E48091D00F051BA20683544B5425E
:1022E0004560216805D2A06BBDE8F041091D00F0F2
:1022F0002DBA606B091D00F029FAA06A854200D250
:10230000A562BDE8F08100001400002068050020EF
:102310002DE9F041054600F03DFA2E4CA068401C26
:10232000A06020682C4F10B1606940B32DE025609B
:10233000A068012829D1002606EB860007EB800063
:1023400000F0F6F9761C072EF6D323488C3000F007
:10235000EFF92148A03000F0EBF91F48B43000F04D
:10236000E7F91D48C83000F0E3F91B48DC3000F005
:10237000DFF919488C3060631430A06305E02068F1
:10238000E96AC06A884200D82560606A401C6062C1
:10239000E96A0120226988401043206101EB810035
:1023A00007EB8000291D00F0E9F900F013FA6069DD
:1023B00000280CD02068E96AC06A884207D2074921
:1023C0004FF080500860BFF34F8FBFF36F8FBDE8B1
:1023D000F0810000140000208C04002004ED00E0D7
:1023E00010B5044690F8510058B101280CD00228CD
:1023F0000FD0502080F31188BFF34F8FBFF36F8F42
:10240000FEE7206B00F0FAF92046BDE8104000F02E
:10241000F5B910BD10484FF47051420706D0C01DE9
:102420000D4920F00700411AC1F570510B4A0023F5
:102430000144C2E900030839183A21F0070111608C
:102440004B600B600B1AC0E9001393604FF0004023
:1024500053605061704700007C0500206800002038
:10246000144E154CA6F1C8074FF08058DFF84C9079
:1024700012E000BF00F08EF9F068C568281D00F07A
:1024800039F9A068401EA0606068401E606000F0DE
:10249000A1F92846FFF7A4FF60680028EAD1386850
:1024A0000128F9D9C9F80080BFF34F8FBFF36F8FB0
:1024B000F2E70000540500201400002004ED00E0C5
:1024C0002DE9F0479A46DDE9098481466FF0030360
:1024D000206B03EB82021044089E20F00707780768
:1024E00007D0502080F31188BFF34F8FBFF36F8F59
:1024F000FEE7002561B1002023180A5C83F8342030
:102500000A5C12B1401C1028F6D384F8435001E055
:1025100084F83450072E00D30626E662C4E911651C
:10252000201D00F010F904F1180000F00CF92461EE
:10253000C6F107006462A061E56484F85050524619
:102540004946384600F0C0F82060B8F1000F01D0CD
:10255000C8F80040BDE8F08730B5114900E01146E9
:102560000A688242FBD34B685C18844203D14068FE
:1025700018444860084643681C18944209D1084C26
:10258000183C2468A24209D052681A4442600A6882
:1025900012680260814200D0086030BD0460F9E733
:1025A000680000200648416B096829B1416BC96881
:1025B000C9684968816270474FF0FF31FAE700004F
:1025C0001400002008484068401C4FF0500080F381
:1025D000118804D0BFF34F8FBFF36F8FFEE7BFF3B7
:1025E0004F8FBFF36F8FFEE7700000202DE9F041A1
:1025F0000546002700F0A2F9324E306808B9FFF70F
:1026000009FF706905424ED1C5B3083568070ED081
:1026100005F00700C0F108000544680707D0502006
:1026200080F31188BFF34F8FBFF36F8FFEE72DB399
:102630007068854237D82348183001460C6801E09D
:1026400020460C466168A94202D221680029F7D1D0
:1026500031688C4227D007682168016060680837BC
:10266000411B10290FD96019420708D0502080F370
:102670001188BFF34F8FBFF36F8FFEE713E0416008
:102680006560FFF769FF61687068401A7060B26842
:10269000904200D2B060706901430020C4E900019B
:1026A000F068401CF06000F0B7FA780707D05020BF
:1026B00080F31188BFF34F8FBFF36F8FFEE738466B
:1026C000BDE8F0815000002010B5031F4FF080746A
:1026D0001C601B1F21F001011960191F044B0B60C6
:1026E00014390A60091F6FF0020244380A6010BDF5
:1026F000C5250008D0E9013201699A60D0E90123BB
:102700005A604A68824201D182684A6000220261AE
:102710000868401E0860086870470000034B0360AB
:1027200003F1540008608020106070477C00002096
:1027300000F108014FF0FF32C0E90112C1600161F0
:1027400000210160704700210161704730B50B68BE
:102750005A1C02D000F1080202E0026904E022469D
:10276000546825689D42FAD953684B6099608A6025
:10277000516008610168491C016030BD42684A60CF
:1027800093688B6093685960916008610168491C87
:1027900001607047502080F31188BFF34F8FBFF363
:1027A0006F8F0A494868401C486001280CD10848CE
:1027B000006810F0FF0F07D0502080F31188BFF39E
:1027C0004F8FBFF36F8FFEE770470000700000204F
:1027D00004ED00E00849486828B1401E486001D176
:1027E00080F311887047502080F31188BFF34F8F1A
:1027F000BFF36F8FFEE700007000002070B5002867
:102800002AD0164DA0F1080460686969084207D112
:10281000502080F31188BFF34F8FBFF36F8FFEE717
:1028200022683AB1502080F31188BFF34F8FBFF375
:102830006F8FFEE78843606000F080F86068696829
:10284000084468602046FFF787FE2869401C28611D
:10285000BDE8704000F0E0B970BD000050000020FD
:102860004FF0E02000210161816105494FF47A7247
:102870000968B1FBF2F1491E41610721016170470E
:102880001000002010B5020014D00F48006B38B1C2
:10289000502080F31188BFF34F8FBFF36F8FFEE797
:1028A00000F04CF800211046FFF7FAFC00F0B4F9F4
:1028B000002807D105494FF080500860BFF34F8FC3
:1028C000BFF36F8F10BD00001400002004ED00E086
:1028D00010B586B00024039405AA04A903A80494A3
:1028E000FFF71CFFDDE903010094CDE9011000238F
:1028F0000EA11048059A00F0FEF80F490028C862A2
:1029000011D0502080F31188BFF34F8FBFF36F8F2A
:102910004FF0FF30886201204861CC6006B0BDE80E
:10292000104000F041B806B010BD000049444C45CD
:102930000000000061240008140000200248016B20
:10294000491C016370470000140000201448016B0B
:1029500011B10121C16170470021C1610169B1FA62
:1029600081F1C1F11F0101EB81020E4951F82230C2
:102970006BB101EB820101F108034A6852684A60B9
:102980009A4201D152684A60D16801607047502074
:1029900080F31188BFF34F8FBFF36F8FFEE7000006
:1029A000140000208C0400201CB537480168374A09
:1029B000914207D1502080F31188BFF34F8FBFF3AE
:1029C0006F8FFEE700683149491E884207D15020C9
:1029D00080F31188BFF34F8FBFF36F8FFEE72C4951
:1029E00008780190FF20087008788DF800009DF8A5
:1029F00000009DF8002000F0F000904207D0502029
:102A000080F31188BFF34F8FBFF36F8FFEE79DF800
:102A10000000204C00F0500020700720A06005E06E
:102A20009DF8002052008DF80020401E9DF80020E7
:102A30001206F5D4A060032807D0502080F3118837
:102A4000BFF34F8FBFF36F8FFEE74FF44070A0606E
:102A5000019808700C482030016841F47001016051
:102A6000016841F070410160FFF7FAFE00206060EC
:102A7000FDF7FEFB0848016841F040410160FDF7A9
:102A8000E3FB00201CBD000000ED00E071C20F411F
:102A900000E400E07000002034EF00E02DE9FF5F6B
:102AA0008346DDE90E87994616468A469000FFF771
:102AB0009DFD05001CD05420FFF798FD040014D0A4
:102AC0000020256384F85100CDE90240CDE900875C
:102AD0004B46324651465846FFF7F2FC2046FFF778
:102AE00017FC012004B0BDE8F09F2846FFF786FEE2
:102AF0004FF0FF30F6E7F0B585B0DDE90B640A9DD5
:102B0000A6B1DCB1542700972663022684F85160F1
:102B1000002604AFCDE90246CDE90057FFF7D0FC0F
:102B20002046FFF7F5FB049805B0F0BD502080F378
:102B30001188BFF34F8FBFF36F8FFEE7502080F3F4
:102B40001188BFF34F8FBFF36F8FFEE72DE9F04180
:102B50002F4C0026206B28B1A069401CA061304694
:102B6000BDE8F081E5686D1CE56013D1606B00681D
:102B700038B1502080F31188BFF34F8FBFF36F8FB0
:102B8000FEE7606BA16B6163A063206A401C20625A
:102B9000FFF708FDA06ADFF87C80854209D3606BEF
:102BA0000068A0B1606BC068C7687868854211D2C0
:102BB000A0622068C06A00EB800158F8210001285B
:102BC00000D90126E0690028C9D00126C7E74FF0E7
:102BD000FF30EDE7381DFFF78DFDB86A18B107F13A
:102BE0001800FFF787FDF96A012022698840104329
:102BF000206101EB810108EB8100391DFFF7BEFD6B
:102C0000F86A2168C96A8842C9D30126C7E700006B
:102C1000140000208C0400202DE9F0472C4D0024E6
:102C20002746286B38B1FFF7B5FD286B401E286397
:102C3000286B40B146E0502080F31188BFF34F8FDE
:102C4000BFF36F8FFEE7A968224E0120D1B3A6F132
:102C5000B40980463068E8B1F068C46804F118002F
:102C6000FFF748FD201DFFF745FDE06A2A6908FAD5
:102C700000F11143296100EB800109EB8100211D66
:102C8000FFF77CFDE06A2968C96A8842E2D3C5F88B
:102C90001C80DFE70CB1FFF785FCAC6944B1464608
:102CA000FFF754FF00B1EE61641EF9D10020A86166
:102CB000E86938B10849012738070860BFF34F8F2A
:102CC000BFF36F8FFFF786FD3846BDE8F087000041
:102CD000140000204005002004ED00E04FF000004B
:102CE000E1EE100A704700001C2D0008D11C0008FE
:102CF00000000000000000000004000000000000D0
:102D000000000000000000000000000001020304B9
:102D1000060708090000000001020304436861730C
:102D20007369735461736B00482D00080000002024
:102D30007C000000C4010008C42D00087C000020B5
:102D400064470000E00100080000000001000000EE
:102D500010000000000000000024F400000000004B
:102D60000000000000000000000000000000000063
:102D70000000000000000000000000000000000053
:102D80000000000000000000000000000000000043
:102D90000000000000000000000000000000000033
:102DA0000000000000000000000000000000000023
:102DB000000000000000000000000000AAAAAAAA6B
:042DC000000000000F
:040000050800018965
:00000001FF
