:020000040800F2
:1000000040470020E90200083B180008FF150008DF
:1000100039180008430500083F1C000800000000D4
:10002000000000000000000000000000290200089D
:10003000450500080000000085020008851800083A
:100040000303000803030008030300080303000878
:100050000303000803030008030300080303000868
:100060000303000803030008030300080303000858
:100070000303000803030008030300080303000848
:100080000303000803030008030300080303000838
:100090000303000803030008030300080303000828
:1000A0000303000803030008030300080303000818
:1000B0000303000803030008030300080303000808
:1000C00003030008030300080303000803030008F8
:1000D00003030008030300080303000803030008E8
:1000E00003030008030300080303000803030008D8
:1000F00003030008030300080303000803030008C8
:1001000003030008030300080303000803030008B7
:10011000030300080303000859190008030300083B
:100120000303000803030008030300080303000897
:100130000303000803030008030300080303000887
:100140000303000803030008030300080303000877
:100150000303000803030008030300080303000867
:100160000303000803030008030300080303000857
:100170000303000803030008030300080000000055
:10018000030300080303000800F002F800F03CF845
:100190000AA090E8000C82448344AAF10107DA45E2
:1001A00001D100F031F8AFF2090EBAE80F0013F0F8
:1001B000010F18BFFB1A43F001031847D0260000B7
:1001C000F0260000103A24BF78C878C1FAD8520748
:1001D00024BF30C830C144BF04680C6070470000C1
:1001E0000023002400250026103A28BF78C1FBD840
:1001F000520728BF30C148BF0B6070471FB502F0DF
:100200001FFB1FBD10B510BD00F061F91146FFF7CF
:10021000F5FF01F025FD00F07FF903B4FFF7F2FFD1
:1002200003BC00F087F900002C4B19680868B0E89F
:10023000F04F80F30988BFF36F8F4FF0000080F319
:10024000118870470000000008480068006880F3CB
:1002500008884FF0000080F3148862B661B6BFF3DF
:100260004F8FBFF36F8F00DF00BF00BF08ED00E0CE
:10027000DFF80C00016841F470010160704700BFB5
:1002800088ED00E0EFF30980BFF36F8F134B1A681E
:100290001EF0100F08BF20ED108A20E9F04F10600B
:1002A00009B44FF0500080F31188BFF34F8FBFF3B4
:1002B0006F8F02F0FDF84FF0000080F3118809BC49
:1002C00019680868B0E8F04F1EF0100F08BFB0ECD6
:1002D000108A80F30988BFF36F8F704714000020E5
:1002E000EFF3058070470000094880470948004740
:1002F000FEE7FEE7FEE7FEE7FEE7FEE7FEE7FEE7D6
:10030000FEE7FEE704480549054A064B7047000032
:100310004919000889010008404100204047002099
:10032000404300204043002053EA020C00F0698063
:100330002DE9F04B4FF00006002B1FBFB3FA83F5F9
:1003400003FA05F424FA05F65E4012BF1643B2FA2A
:1003500082F502FA05F4C5F120051EBF22FA05FC5C
:1003600044EA0C04203556EA044C4FEA144418BF02
:10037000641C4FF000084FF00009904271EB030C31
:1003800039D3002919BFB1FA81F701FA07F6B0FA9B
:1003900080F700FA07F6C7F120071EBF20FA07FC16
:1003A00046EA0C062037B6FBF4FCA7EB0507103F26
:1003B00007F01F0BCBF120060CFA0BFB2CFA06F60C
:1003C00044BFB3460026202FA4BF5E464FF0000B6B
:1003D0005BEA060C08BF4FF0010B19EB0B09ABFBF6
:1003E000027C48EB0608C01B06FB02CC0BFB03CCCF
:1003F00071EB0C01C1E70B46024641464846BDE899
:10040000F08B13B54FF000004FF00001AFF3008008
:10041000BDE81C40704710B5203AC0F00B80B1E831
:100420001850203AA0E81850B1E81850A0E8185029
:10043000BFF4F5AF5FEA027C24BFB1E81850A0E832
:10044000185044BF18C918C0BDE810405FEA827C4C
:1004500024BF51F8043B40F8043B08BF7047D20763
:1004600028BF31F8023B48BF11F8012B28BF20F804
:10047000023B48BF00F8012B70474FF0000200B567
:10048000134694469646203922BFA0E80C50A0E8B7
:100490000C50B1F12001BFF4F7AF090728BFA0E865
:1004A0000C5048BF0CC05DF804EB890028BF40F831
:1004B000042B08BF704748BF20F8022B11F0804F73
:1004C00018BF00F8012B704770477047704775469A
:1004D00000F02CF8AE4605006946534620F00700B0
:1004E000854618B020B5FFF70DFFBDE820404FF05E
:1004F00000064FF000074FF000084FF0000B21F00E
:100500000701AC46ACE8C009ACE8C009ACE8C009DA
:10051000ACE8C0098D46704710B50446AFF30080C3
:100520002046BDE81040FFF778BE00000048704745
:10053000E040002001491820ABBEFEE72600020083
:100540007047FEE7704772B6FEE700002DE9F84FEE
:10055000DFF8BCA10022012503264FF00F090AF1A4
:10056000040BAAF1040E00BF0B6805FA02F4234045
:10057000A34270D10F7907F00307012F01D0022F9A
:1005800016D187684FEA420806FA08FC27EA0C07EA
:10059000D1F80CC00CFA08FC4CEA070CC0F808C0F3
:1005A0004768A7430C79C4F3001494403C4344606B
:1005B0000C79E443A4070AD0C4684FEA420C06FA57
:1005C0000CF7BC438F6807FA0CF72743C7600C7918
:1005D00004F00304022C12D1D40800EB840CDCF8E4
:1005E00020405707FF0E09FA07F824EA0804D1F85B
:1005F000108008FA07F848EA0408CCF8208004685C
:100600004FEA420C06FA0CF7BC430F7907F00307D8
:1006100007FA0CF7274307604C6814F4403F70D08A
:100620003C4C276847F480472760246822F0030782
:1006300004F480440094384C07EB040CDCF80848C0
:1006400097074FEA177809FA08F7BC43334FB842C7
:1006500002D1002724E054E0314FB84201D10127F4
:100660001EE0304FB84201D1022719E02E4FB842A8
:1006700001D1032714E02D4FB84201D104270FE028
:100680002B4FB84201D105270AE02A4FB84201D1C9
:10069000062705E0284FB84201D1072700E00827C8
:1006A00007FA08F72743CCF80878DAF800405746ED
:1006B000D1F804C09C435FEACC2C00D51C433C60BD
:1006C000DBF800405F46D1F804C09C435FEA8C2C05
:1006D00000D51C433C60DEF800407746D1F804C0EA
:1006E0009C435FEA8C3C00D51C433C60084F083FAC
:1006F0003C68D1F804C09C435FEACC3C00D51C4365
:100700003C60521C102AFFF42FAFBDE8F88F0000A8
:10071000083C0140443802400030014000000240E3
:100720000004024000080240000C02400010024099
:100730000014024000180240001C02400AB181610E
:1007400070470904FBE7000001488068704700001B
:1007500004000020024881680278114481607047DB
:10076000040000200B4810B5016841F400710160DD
:10077000016841F480610160016841F480710160A9
:10078000032000F09FF80F2000F006F800F050F86A
:10079000002010BD003C024030B505461F4887B020
:1007A0000024016841F010010160006806A900F012
:1007B0001000009001A800F031F90498A8B100F0F1
:1007C0004DF940001649174AB0FBF1F11648491E91
:1007D000026040F2E732C0E90324C0E901148461F9
:1007E00000F0A8FB040003D015E000F037F9E9E7BA
:1007F0000D4800F0E1FB04000DD1362000F034F884
:10080000102D07D200222946362000F03BF8074879
:10081000056000E0012407B0204630BD40380240AA
:1008200040420F0000100040A803002008000020F4
:100830000C4882B0016841F480410160006800F416
:10084000804000900748001F016841F0805101601E
:100850000068002200F0805000900F21901E02B02E
:1008600000F010B844380240002809DB00F01F02F5
:10087000012191404009800000F1E020C0F8001102
:1008800070470000F0B40E4B1B680C46C3F3022304
:10089000C3F10705042D00D90425191D072901D22C
:1008A000002300E0DB1E012606FA05F1491E214067
:1008B00099409E40761E16403143F0BC01F0C0B90D
:1008C0000CED00E0064900F0070208684FF6FF0350
:1008D000184040EA0220034A1043086070470000B5
:1008E0000CED00E00000FA052DE9F0470E4605008A
:1008F00065D0DFF81481D8F80000F7B200F00700E7
:10090000B04207D288F80070D8F8000000F0070065
:10091000B04254D128683D4C810712D5400703D519
:10092000206840F4E05020602878000703D5206854
:1009300040F4604020602068A96820F0F00008437F
:1009400020602878C0072DD0304968680839012810
:1009500012D0022813D0032811D009688907002972
:100960002DDA216821F0030101432160FFF7ECFE3D
:10097000814641F2883A0EE009688903EFE7096889
:100980008901ECE7FFF7E0FEA0EB0901514502D930
:100990000320BDE8F0872068696800F00C00B0EB28
:1009A000810FEFD1D8F80010404601F00701B142A5
:1009B00007D90770006800F00700B04201D001209D
:1009C000E7E72878400705D52068E96820F4E0507B
:1009D000084320602878000706D52068296920F49C
:1009E000604040EAC100206000F048F82168084AF1
:1009F000C1F30311515CC84006490860064800680D
:100A0000FFF7CAFE0020C4E7003C0240083802405D
:100A10006828000810000020080000200F22026053
:100A20000C4A136803F003034360136803F0F003F8
:100A30008360136803F4E053C36012684FF4E0531B
:100A400003EAD20202610448006800F0070008606F
:100A50007047000008380240003C02400448054945
:100A600000680968044AC1F38221515CC84070479C
:100A7000100000200838024078280008154810B5FA
:100A8000006810F00C02144813D01449042A0FD047
:100A9000082A0ED10F4C241F2268236802F03F025F
:100AA0005B0207D52068C0F38810A0FB010106E0B7
:100AB000084610BD2168C1F38811A1FB0001002385
:100AC000FFF732FC2168C1F30141491C4900B0FB2A
:100AD000F1F010BD083802400024F40040787D0198
:100AE0002DE9F84F04006ED02078DFF84C93C00752
:100AF000A9F104054AD009F104000168C1F381019C
:100B0000012908D00068C0F3810002280AD1D9F871
:100B10000000400206D52868800337D560680028A9
:100B2000E1D033E06068B0F5803F10D0B0F5A02F81
:100B3000286810D020F480302860286820F48020B5
:100B400028606068A8B1FFF7FFFD06460DE0286841
:100B500040F48030F4E740F480202860F7E700BFDD
:100B6000FFF7F2FD801B642873D828688003F7D54F
:100B70000CE0FFF7E9FD064605E000BFFFF7E4FDE6
:100B8000801B6428F0D828688003F7D42078DFF829
:100B9000AC8280074FF0000A3ED5A748001D0168CF
:100BA00011F00C0F08D00068C0F3810002280BD1AF
:100BB000D9F80000400207D42868800716D5E068FD
:100BC000012800D112E033E1E068B8B10120C8F893
:100BD0000000FFF7B9FD064605E000BFFFF7B4FDD2
:100BE000801B0228C0D828688007F7D528682169AB
:100BF00020F0F80040EAC10028600DE0C8F800A02D
:100C0000FFF7A2FD064604E0FFF79EFD801B0228C9
:100C10001FD828688007F7D42078000722D5864F90
:100C200087486169703771B101210160FFF78CFD60
:100C3000064604E0FFF788FD801B022809D83868C3
:100C40008007F7D50EE0C0F800A0FFF77DFD06464F
:100C500005E082E0FFF778FD801B02287DD8386828
:100C60008007F7D42078400768D5DFF8CCB100279B
:100C70000BF13C0BDBF80000C0000BD4DBF80010DC
:100C800041F08051CBF80010DBF80000012700F0A4
:100C9000805000906B4E3068C00510D4306840F42E
:100CA00080703060FFF750FD009005E0FFF74CFDCD
:100CB0000099401A022850D83068C005F6D55E4E1B
:100CC000A0686C3601280FD00528306810D020F0BD
:100CD00001003060306820F004003060A068B8B1D6
:100CE000FFF732FD00900FE0306840F00100F4E7BC
:100CF00040F004003060F7E7FFF726FD0099411A45
:100D000041F28830814266D830688007F4D50EE021
:100D1000FFF71AFD009007E0FFF716FD0099411A52
:100D200041F28830814256D830688007F4D42FB120
:100D3000DBF8001021F08051CBF80010A069C8B397
:100D40003D49091D0968C1F3810102294AD00228E1
:100D5000504607D0C8F8600000E03CE0FFF7F4FC24
:100D600004463BE04746C8F86000FFF7EDFC064646
:100D700005E000BFFFF7E8FC801B02282BD828689D
:100D80008001F7D4D4E907010843A16A2E4A490833
:100D900002EB0141626A41EA8211084394F82C1087
:100DA00040EA0161C9F8001001203866FFF7CCFC69
:100DB000044606E03EE000BFFFF7C6FC001B022829
:100DC00009D828688001F7D534E000BFFFF7BCFCE4
:100DD000001B022802D90320BDE8F88F2868800193
:100DE000F4D427E00128F7D0D9F80000E26900F434
:100DF000800191421CD1226A00F03F01914217D13B
:100E000047F6C071626A0140B1EB821F10D1A26A3D
:100E10004FF0FF3300F4403103EB5202B1EB024FCD
:100E200006D194F82C1000F07060B0EB016F01D087
:100E30000120D1E70020CFE70438024000004742FC
:100E4000800E4742007000400000FFFF704770476F
:100E500010B590F83C20012A22D0012280F83C20D5
:100E6000CA688C6822F4407222434C6822F4806283
:100E700022430C6822F4006222430C6922F480525F
:100E800022434C6922F400522243C969002322F410
:100E900080420A4301684A6480F83C30002010BD5B
:100EA000022010BD70B590F83C20012A32D00124F8
:100EB00080F83C40022280F83D2003685A689D6813
:100EC00022F070060A6832435A60134B02689A4255
:100ED00014D0B2F1804F11D0104B9A420ED0104B6B
:100EE0009A420BD00F4B9A4208D00F4B9A4205D032
:100EF0000E4B9A4202D00E4B9A4204D1496825F01B
:100F000080031943916080F83D40002180F83C1037
:100F1000084670BD022070BD000001400004004082
:100F200000080040000C0040000401400040014067
:100F30000018004010B5040003D094F83D0010B133
:100F400007E0012010BD002084F83C00204600F09E
:100F50001FF8022084F83D00211D206800F002FDEA
:100F6000012084F8460084F83E0084F83F0084F8AD
:100F7000400084F8410084F8420084F8430084F87B
:100F8000440084F8450084F83D00002010BD0000B6
:100F900008B500680649884208D10648016841F052
:100FA00001010160006800F00100009008BD000030
:100FB000000001404438024090F83D10012901D062
:100FC00001207047022180F83D100168CA6842F094
:100FD0000102CA6000681149884214D0B0F1804F04
:100FE00011D00F4988420ED00E4988420BD00E49CD
:100FF000884208D00D49884205D00D49884202D068
:101000000C49884204D1816801F00701062903D008
:10101000016841F0010101600020704700000140BB
:101020000004004000080040000C004000040140A3
:10103000004001400018004070B5044690F83C00A4
:101040000025012817D0012684F83C60022084F88E
:101050003D002068826822F0770222F47F4282609D
:101060000868502838D00DDC20284FD005DC90B31C
:10107000102811D14AE0022070BD302846D0402807
:101080000AD13BE060282FD070280DD0B0F5805FEA
:1010900003D0B0F5005F12D0012584F83D60002038
:1010A00084F83C00284670BDCB68D1E90121206856
:1010B00000F0CDFC2068816841F0770109E0CB6841
:1010C000D1E90121206800F0C2FC2068816841F468
:1010D00080418160E1E719E0CA684968206800F052
:1010E0008BFD5021206806E0CA684968206800F03E
:1010F00094FD6021206800F0B4FCCEE7CA6849681E
:10110000206800F079FD40212068F4E7226801465C
:101110001046F0E72DE9F0410D46040003D094F8A5
:101120003D0018B108E00120BDE8F081002084F8FE
:101130003C00204600F040F8022084F83D00206882
:10114000816844F2070291438160211D206800F00C
:1011500009FC226890689169166A2B68AF6903439D
:1011600040F20330814341EA0721A868EF69084350
:101170004FF6FC418843E96840EA072001432869AB
:101180002F6A000140EA0730084369686D6926F05C
:10119000AA0646EA0515294393602268906154F82F
:1011A000460B0162012004F81F09E0752076E07605
:1011B0002077A0750020B7E770B586B004461421EB
:1011C0006846FFF75AF9214A256800231F49103A5B
:1011D00002241F48B5F1804F1ED01E4EB54219D1D2
:1011E0000D6845F002050D60096801F002010591E6
:1011F000116841F001011160116801F001010591D0
:10120000C0210091CDE90143CDE90334694600BF17
:10121000FFF79CF906B070BD0D6845F001050D6043
:10122000096801F001010591116841F001011160A7
:10123000116801F00101059103210091CDE90143FD
:101240000121CDE903316946E2E700004038024060
:10125000000002400004004070B590F83E60044673
:1012600090F83F5090F8423090F84320022021B18E
:1012700004290ED0012E1BD114E0012E18D1012B10
:1012800016D184F83E0084F8420001220021206833
:1012900020E0012D0CD1012A0AD184F83F0084F806
:1012A000430014E0012D03D1012B01D1012A01D00B
:1012B000012070BD84F83E0084F83F0084F84200AD
:1012C00084F8430001220021206800F0B3FB0122D2
:1012D0000421206800F0AEFB2068016841F00101A4
:1012E0000160002070BD70472DE9F04104460068A0
:1012F000C66805694FF00007A90713D5B10711D5D6
:10130000F91E01610120207720688069800720464E
:1013100002D0FFF7E8FF04E000F0D1F8204600F02B
:10132000FDF82777680716D5700714D521686FF088
:1013300004000861022020772068806910F4407F53
:10134000204602D0FFF7CFFF04E000F0B8F82046B7
:1013500000F0E4F82777280715D5300713D5216862
:101360006FF008000861042020772068C0698007BA
:10137000204602D0FFF7B7FF04E000F0A0F82046B7
:1013800000F0CCF82777E80616D5F00614D52168CA
:101390006FF010000861082020772068C06910F401
:1013A000407F204602D0FFF79EFF04E000F087F860
:1013B000204600F0B3F82777E80708D0F00706D0FA
:1013C00021686FF001000861204600F00DF9280641
:1013D00008D5300606D521686FF0800008612046E8
:1013E000FFF734FD680608D5700606D521686FF052
:1013F00040000861204600F001F9A8060AD5B006B1
:1014000008D521686FF0200008612046BDE8F04152
:10141000FFF71DBDBDE8F08110B586B0044614216C
:101420006846FFF72AF80E492068884216D10D4811
:101430000021026842F010020260006800F0100013
:1014400005904FF4206000900220CDE901010120B9
:10145000CDE9031069460448FFF778F806B010BDDF
:1014600000000140303802400010024070B50446D0
:1014700090F83C00002501280FD0012084F83C00A2
:101480006AB1042A0FD0082A11D00C2A13D00125E2
:10149000002084F83C00284670BD022070BD206802
:1014A00000F0E8FAF4E7206800F014FBF0E72068A9
:1014B00000F046FBECE7206800F076FBE8E77047B9
:1014C00010B5040003D094F83D0010B107E00120EE
:1014D00010BD002084F83C00204600F01EF80220D9
:1014E00084F83D00211D206800F03CFA012084F8BA
:1014F000460084F83E0084F83F0084F8400084F8F9
:10150000410084F8420084F8430084F8440084F8E1
:10151000450084F83D00002010BD70477047000072
:1015200010B50446022249B104290ED0082913D06F
:1015300094F84100012816D0012010BD94F83E0017
:101540000128F9D184F83E200FE094F83F000128EB
:10155000F2D184F83F2008E094F840000128EBD154
:1015600084F8402001E084F841200122206800F046
:1015700061FA16492068164A884201D0904203D188
:10158000436C43F4004343642068884213D0B0F1B5
:10159000804F10D00F4988420DD00F4988420AD0A1
:1015A0000E49884207D0904205D00D49884202D0AA
:1015B0000C49884204D1816801F00701062903D053
:1015C000016841F001010160002010BD00000140F0
:1015D000000401400004004000080040000C0040EE
:1015E000004001400018004000680349884201D1D2
:1015F000FFF7B0B870470000001000407047FEE7EA
:1016000000B587B01C2206496846FEF704FF00219A
:10161000684600F0CDFB0349086007B000BD00003C
:101620004C2800080000002030B587B0142168461F
:10163000FEF723FF15480024016841F01001016006
:10164000016801F010010591016841F0800101601D
:10165000016801F080010591016841F0010101601C
:1016600000680B4D00F00100059000223C21284647
:10167000FFF764F83C2000900120CDE901046946A1
:1016800028460394FEF762FF07B030BD30380240B1
:101690000010024010B596B000240F9410941194DD
:1016A000129413941C2168461494FEF7E6FE202140
:1016B00007A8FEF7E2FE2B482949C0E9001441F2D1
:1016C0006701C0E90241046144618461FFF732FCB3
:1016D00008B1FEF738FF4FF480500F900FA9214852
:1016E000FFF7AAFC08B1FEF72EFF1E48FFF7E8FE41
:1016F00008B1FEF728FF139413A91A481494FFF7B2
:10170000D1FB08B1FEF71FFF0094019402940394EB
:10171000049405940022694612480694FFF7A6FE39
:1017200008B1FEF710FF042269460E48FFF79EFE3F
:1017300008B1FEF708FF0794089409944FF400508D
:101740000A94CDE90B4007A906480E94FFF780FBE9
:1017500008B1FEF7F8FE0348FFF75EFE16B010BDB5
:1017600000000140D002002010B58CB02421684652
:10177000FEF783FE0024154809944FF080410A9437
:10178000C0E900144FF6FF71C0E9024104618461B1
:101790000120CDE90004CDE902040494CDE905401F
:1017A0000794694609480894FFF7B4FC08B1FEF7AE
:1017B000CAFE099409A905480A94FFF773FB00289B
:1017C00001D0FEF7C0FE0CB010BD000018030020D1
:1017D00010B58CB024216846FEF74FFE0024154852
:1017E000099413490A94C0E900144FF6FF71C0E947
:1017F0000241046184610120CDE90004CDE90204C5
:101800000494CDE90540079469460A480894FFF717
:1018100081FC08B1FEF797FE099409A905480A94CE
:10182000FFF740FB002801D0FEF78DFE0CB010BD85
:101830000004004060030020FEE7FEE70F4E104D5D
:1018400040F63404012204213046FEF777FF0022DF
:1018500008213046FEF772FF012210213046FEF7C4
:101860006DFF002220213046FEF768FF28684463A0
:10187000286884630A2000F08FFAE3E70010024032
:10188000D002002010B5502080F31188BFF34F8F95
:10189000BFF36F8F00F00CFF18B104494FF0805078
:1018A0000860002080F3118810BD000004ED00E006
:1018B00030B593B030216846FEF7DFFD14210CA847
:1018C000FEF7DBFD1E480025016841F080510160F4
:1018D000006800F0805011901A48016841F480417E
:1018E00001600068022400F4804011900120009003
:1018F000000401908001CDE90640192008904FF4C2
:10190000A870CDE9090404200B906846FFF7E8F8B9
:1019100008B172B6FEE70CA90F2081E831004FF440
:10192000A0500F904FF48050109005210CA8FEF7A6
:10193000DBFF002801D072B6FEE713B030BD000017
:1019400040380240007000400248016841F47001D4
:101950000160704788ED00E00148FFF7C5BC00005A
:10196000A8030020F0B50268274B284D284E294FC8
:10197000294C4FF0804C984209D0604507D0A842CE
:1019800005D0B04203D0B84201D0A04204D122F029
:10199000700E4A6842EA0E0298421BD0604519D088
:1019A000A84217D0B04215D0B84213D0A04211D0EF
:1019B0001A4DA8420ED01A4DA8420BD0194DA8427C
:1019C00008D0194DA84205D0184DA84202D0184D94
:1019D000A84203D122F44075CA682A434D6922F017
:1019E00080022A438D68C5620D688562984201D0E5
:1019F000A04201D109690163016841F0040101605D
:101A0000012141610260F0BD00000140000400407E
:101A100000080040000C004000040140004001406C
:101A2000004401400048014000180040001C0040F4
:101A30000020004010B501F01F030121046A994005
:101A40008C430462016A9A401143016210BD10B5D3
:101A5000846842EA032224F47F440A4322438260DA
:101A600010BD826822F070020A4342F007018160D3
:101A700070470000F0B5036A026A22F001020262B8
:101A800042688469124E24F073050C682C4323F0DD
:101A900002058B682B430D4DA84201D0B04205D101
:101AA00023F00807CB683B4323F00403A84201D08E
:101AB000B04205D14D6922F4407215438A692A4328
:101AC00042608461496841630362F0BD00000140E7
:101AD00000040140F0B5026A036A23F010030362B8
:101AE000436884690D6824F4E64444EA05248D685B
:101AF00022F0200242EA05120F4D104EA84201D0FA
:101B0000B04206D1CF6822F0800242EA071222F0EA
:101B10004002A84201D0B04207D14D6923F440638E
:101B200043EA85038D6943EA85034360846149681C
:101B300081630262F0BD000000000140000401402A
:101B4000F0B5026A036A23F4807303624368C469D0
:101B500022F4007224F073050C68124E2C438D6839
:101B600042EA05220E4DA84201D0B04206D1CF680C
:101B700022F4006242EA072222F48062A84201D0E5
:101B8000B04207D14D6923F4405343EA05138D69F0
:101B900043EA05134360C4614968C1630262F0BD52
:101BA000000001400004014030B5046A026A22F4DA
:101BB000805202624268C3690D6823F4E64343EA37
:101BC00005238D6824F4005444EA0534084DA842E6
:101BD00002D0084DA84204D14D6922F4804242EA65
:101BE00085124260C36149680164046230BD00002F
:101BF000000001400004014010B5036A046A24F0AB
:101C000001040462846924F0F00444EA021423F01D
:101C10000A020A438461026210BD10B5036A046AB5
:101C200024F010040462846923F0A00324F47044B7
:101C300044EA023243EA01118261016210BDFEE70B
:101C40000907090E002804DB00F1E02080F80014E9
:101C5000704700F00F0000F1E02080F8141D70477D
:101C600008B5FEF77FFDFFF723FEFFF7DDFCFFF76A
:101C700011FDFFF779FDFFF7ABFD00213D48FFF7B0
:101C80004FFC04213B48FFF74BFC3A480068416C8D
:101C900041F40041416438480021026842F01002DA
:101CA0000260006800F010000090334814300268B1
:101CB00042F001020260006800F0010000902F482D
:101CC000026822F440220260026842F400220260AC
:101CD000426A22F0F0024262426A42F0100242621C
:101CE000026822F440020260026842F400020260CC
:101CF000426A22F470424262426A42F48052426274
:101D0000826842F44C0282601D480160816241F2A7
:101D10006701C16201214161816921F07001816126
:101D2000816941F060018161816921F4E041816153
:101D3000816941F4C0418161816940F60802114323
:101D40008161016A41F011010162416C41F400417D
:101D50004164016841F0010101603C210948FFF73D
:101D60007BFA3C210848FFF777FAFFF749FC00F0BF
:101D70001AF8FEE7D002002030380240001002407E
:101D800000000140180300206003002001460020ED
:101D9000842900D0C81C704710B500B9012000F09C
:101DA00023FB002010BD10B500F044FB002010BD47
:101DB0007FB50D4604464169B0F9080081B1A169BB
:101DC00071B1FFF7E3FFD4E905128DE80700D4E90C
:101DD00000102B46226900F040FC039004B070BD57
:101DE000FFF7D4FF03A9CDE90001208A2B4682B278
:101DF000D4E9001000F004FC012801D00020EDE738
:101E00000398EBE72DE9F041184C0F460546E668CC
:101E10002068001D00F020FA38B9206890F82C10D6
:101E200001208840216981432161681C07D137B1B5
:101E30002168BDE8F0410E48091D00F051BA206844
:101E40003544B5424560216805D2A06BBDE8F0413C
:101E5000091D00F02DBA606B091D00F029FAA06A77
:101E6000854200D2A562BDE8F08100001400002088
:101E7000CC0400202DE9F041054600F03DFA2E4C3F
:101E8000A068401CA06020682C4F10B1606940B36E
:101E90002DE02560A068012829D1002606EB8600E8
:101EA00007EB800000F0F6F9761C072EF6D32348E6
:101EB0008C3000F0EFF92148A03000F0EBF91F481A
:101EC000B43000F0E7F91D48C83000F0E3F91B48D2
:101ED000DC3000F0DFF919488C3060631430A06307
:101EE00005E02068E96AC06A884200D82560606A17
:101EF000401C6062E96A0120226988401043206129
:101F000001EB810007EB8000291D00F0E9F900F0EA
:101F100013FA606900280CD02068E96AC06A884218
:101F200007D207494FF080500860BFF34F8FBFF3CF
:101F30006F8FBDE8F081000014000020F003002046
:101F400004ED00E010B5044690F8510058B10128A6
:101F50000CD002280FD0502080F31188BFF34F8F90
:101F6000BFF36F8FFEE7206B00F0FAF92046BDE863
:101F7000104000F0F5B910BD10484FF47051420701
:101F800006D0C01D0D4920F00700411AC1F570515F
:101F90000B4A00230144C2E900030839183A21F032
:101FA000070111604B600B600B1AC0E900139360CE
:101FB0004FF000405360506170470000E004002083
:101FC00068000020144E154CA6F1C8074FF0805849
:101FD000DFF84C9012E000BF00F08EF9F068C568A1
:101FE000281D00F039F9A068401EA0606068401EFE
:101FF000606000F0A1F92846FFF7A4FF60680028A0
:10200000EAD138680128F9D9C9F80080BFF34F8FA9
:10201000BFF36F8FF2E70000B80400201400002027
:1020200004ED00E02DE9F0479A46DDE90984814698
:102030006FF00303206B03EB82021044089E20F034
:102040000707780707D0502080F31188BFF34F8F20
:10205000BFF36F8FFEE7002561B1002023180A5CF3
:1020600083F834200A5C12B1401C1028F6D384F89F
:10207000435001E084F83450072E00D30626E66270
:10208000C4E91165201D00F010F904F1180000F0FA
:102090000CF92461C6F107006462A061E56484F86C
:1020A000505052464946384600F0C0F82060B8F11A
:1020B000000F01D0C8F80040BDE8F08730B51149E5
:1020C00000E011460A688242FBD34B685C188442E8
:1020D00003D1406818444860084643681C1894427D
:1020E00009D1084C183C2468A24209D052681A440D
:1020F00042600A6812680260814200D0086030BD08
:102100000460F9E7680000200648416B096829B1BE
:10211000416BC968C9684968816270474FF0FF31F7
:10212000FAE700001400002008484068401C4FF007
:10213000500080F3118804D0BFF34F8FBFF36F8F2F
:10214000FEE7BFF34F8FBFF36F8FFEE770000020F5
:102150002DE9F0410546002700F0A2F9324E306823
:1021600008B9FFF709FF706905424ED1C5B30835BC
:1021700068070ED005F00700C0F1080005446807A5
:1021800007D0502080F31188BFF34F8FBFF36F8FBC
:10219000FEE72DB37068854237D8234818300146D2
:1021A0000C6801E020460C466168A94202D2216811
:1021B0000029F7D131688C4227D007682168016077
:1021C00060680837411B10290FD96019420708D0F1
:1021D000502080F31188BFF34F8FBFF36F8FFEE75E
:1021E00013E041606560FFF769FF61687068401A3D
:1021F0007060B268904200D2B06070690143002004
:10220000C4E90001F068401CF06000F0B7FA7807FC
:1022100007D0502080F31188BFF34F8FBFF36F8F2B
:10222000FEE73846BDE8F0815000002010B5031FDE
:102230004FF080741C601B1F21F001011960191FF1
:10224000044B0B6014390A60091F6FF00202443816
:102250000A6010BD29210008D0E9013201699A60A5
:10226000D0E901235A604A68824201D182684A60FB
:10227000002202610868401E08600868704700007C
:10228000034B036003F15400086080201060704726
:102290007C00002000F108014FF0FF32C0E901127C
:1022A000C160016100210160704700210161704738
:1022B00030B50B685A1C02D000F1080202E0026936
:1022C00004E02246546825689D42FAD953684B6061
:1022D00099608A60516008610168491C016030BDE5
:1022E00042684A6093688B609368596091600861A6
:1022F0000168491C01607047502080F31188BFF3CA
:102300004F8FBFF36F8F0A494868401C486001280F
:102310000CD10848006810F0FF0F07D0502080F360
:102320001188BFF34F8FBFF36F8FFEE77047000038
:102330007000002004ED00E00849486828B1401E04
:10234000486001D180F311887047502080F31188D4
:10235000BFF34F8FBFF36F8FFEE7000070000020C8
:1023600070B500282AD0164DA0F10804606869698C
:10237000084207D1502080F31188BFF34F8FBFF37D
:102380006F8FFEE722683AB1502080F31188BFF3C7
:102390004F8FBFF36F8FFEE78843606000F080F8D7
:1023A00060686968084468602046FFF787FE28690E
:1023B000401C2861BDE8704000F0E0B970BD00002D
:1023C000500000204FF0E0200021016181610549AB
:1023D0004FF47A720968B1FBF2F1491E416107219D
:1023E000016170471000002010B5020014D00F48A2
:1023F000006B38B1502080F31188BFF34F8FBFF3CB
:102400006F8FFEE700F04CF800211046FFF7FAFC52
:1024100000F0B4F9002807D105494FF0805008605A
:10242000BFF34F8FBFF36F8F10BD0000140000206B
:1024300004ED00E010B586B00024039405AA04A9B9
:1024400003A80494FFF71CFFDDE903010094CDE924
:10245000011000230EA11048059A00F0FEF80F4964
:102460000028C86211D0502080F31188BFF34F8F2D
:10247000BFF36F8F4FF0FF30886201204861CC605E
:1024800006B0BDE8104000F041B806B010BD000035
:1024900049444C4500000000C51F000814000020FE
:1024A0000248016B491C01637047000014000020C2
:1024B0001448016B11B10121C16170470021C16154
:1024C0000169B1FA81F1C1F11F0101EB81020E49ED
:1024D00051F822306BB101EB820101F108034A6827
:1024E00052684A609A4201D152684A60D1680160DC
:1024F0007047502080F31188BFF34F8FBFF36F8F69
:10250000FEE7000014000020F00300201CB537484F
:102510000168374A914207D1502080F31188BFF3F8
:102520004F8FBFF36F8FFEE700683149491E884225
:1025300007D1502080F31188BFF34F8FBFF36F8F07
:10254000FEE72C4908780190FF20087008788DF884
:1025500000009DF800009DF8002000F0F00090427F
:1025600007D0502080F31188BFF34F8FBFF36F8FD8
:10257000FEE79DF80000204C00F05000207007207E
:10258000A06005E09DF8002052008DF80020401E5C
:102590009DF800201206F5D4A060032807D0502033
:1025A00080F31188BFF34F8FBFF36F8FFEE74FF4B7
:1025B0004070A060019808700C482030016841F418
:1025C00070010160016841F070410160FFF7FAFE9F
:1025D00000206060FDF74CFE0848016841F0404172
:1025E0000160FDF731FE00201CBD000000ED00E0A1
:1025F00071C20F4100E400E07000002034EF00E001
:102600002DE9FF5F8346DDE90E87994616468A4627
:102610009000FFF79DFD05001CD05420FFF798FDAA
:10262000040014D00020256384F85100CDE9024055
:10263000CDE900874B46324651465846FFF7F2FC3B
:102640002046FFF717FC012004B0BDE8F09F2846A4
:10265000FFF786FE4FF0FF30F6E7F0B585B0DDE915
:102660000B640A9DA6B1DCB15427009726630226AD
:1026700084F85160002604AFCDE90246CDE9005749
:10268000FFF7D0FC2046FFF7F5FB049805B0F0BD3E
:10269000502080F31188BFF34F8FBFF36F8FFEE799
:1026A000502080F31188BFF34F8FBFF36F8FFEE789
:1026B0002DE9F0412F4C0026206B28B1A069401C69
:1026C000A0613046BDE8F081E5686D1CE56013D17E
:1026D000606B006838B1502080F31188BFF34F8FD2
:1026E000BFF36F8FFEE7606BA16B6163A063206A2D
:1026F000401C2062FFF708FDA06ADFF87C8085425D
:1027000009D3606B0068A0B1606BC068C768786867
:10271000854211D2A0622068C06A00EB800158F89F
:102720002100012800D90126E0690028C9D001262E
:10273000C7E74FF0FF30EDE7381DFFF78DFDB86AB2
:1027400018B107F11800FFF787FDF96A0120226927
:1027500088401043206101EB810108EB8100391DA5
:10276000FFF7BEFDF86A2168C96A8842C9D301260D
:10277000C7E7000014000020F00300202DE9F04717
:102780002C4D00242746286B38B1FFF7B5FD286B88
:10279000401E2863286B40B146E0502080F311882A
:1027A000BFF34F8FBFF36F8FFEE7A968224E012062
:1027B000D1B3A6F1B40980463068E8B1F068C468C6
:1027C00004F11800FFF748FD201DFFF745FDE06A02
:1027D0002A6908FA00F11143296100EB800109EB35
:1027E0008100211DFFF77CFDE06A2968C96A8842E3
:1027F000E2D3C5F81C80DFE70CB1FFF785FCAC69BC
:1028000044B14646FFF754FF00B1EE61641EF9D1B2
:102810000020A861E86938B1084901273807086035
:10282000BFF34F8FBFF36F8FFFF786FD3846BDE8CC
:10283000F087000014000020A404002004ED00E054
:102840004FF00000E1EE100A7047000080280008F9
:102850003D18000800000000000000000004000017
:102860000000000000000000000000000000000068
:102870000102030406070809000000000102030426
:10288000436861737369735461736B00AC2800080B
:10289000000000207C000000C40100082829000876
:1028A0007C000020C4460000E00100080000000099
:1028B0000100000010000000000000000024F400EF
:1028C0000000000000000000000000000000000008
:1028D00000000000000000000000000000000000F8
:1028E00000000000000000000000000000000000E8
:1028F00000000000000000000000000000000000D8
:1029000000000000000000000000000000000000C7
:1029100000000000000000000000000000000000B7
:08292000AAAAAAAA0000000007
:040000050800018965
:00000001FF
