:020000040800F2
:1000000048490020E902000877200008FF1C00088A
:1000100075200008570800082F2A0008000000007B
:10002000000000000000000000000000290200089D
:100030005908000800000000850200087526000825
:100040000303000803030008030300080303000878
:100050000303000803030008030300080303000868
:100060000303000803030008030300080303000858
:100070000303000803030008030300080303000848
:100080000303000803030008030300080303000838
:100090000303000803030008030300080303000828
:1000A0000303000803030008030300080303000818
:1000B0000303000803030008030300080303000808
:1000C00003030008030300080303000803030008F8
:1000D00003030008030300080303000803030008E8
:1000E00003030008030300080303000803030008D8
:1000F00003030008030300080303000803030008C8
:1001000003030008030300080303000803030008B7
:10011000030300080303000849270008030300083D
:100120000303000803030008030300080303000897
:100130000303000803030008030300080303000887
:100140000303000803030008030300080303000877
:100150000303000803030008030300080303000867
:100160000303000803030008030300080303000857
:100170000303000803030008030300080000000055
:10018000030300080303000800F002F800F03CF845
:100190000AA090E8000C82448344AAF10107DA45E2
:1001A00001D100F031F8AFF2090EBAE80F0013F0F8
:1001B000010F18BFFB1A43F001031847783D0000F8
:1001C000983D0000103A24BF78C878C1FAD8520789
:1001D00024BF30C830C144BF04680C6070470000C1
:1001E0000023002400250026103A28BF78C1FBD840
:1001F000520728BF30C148BF0B6070471FB503F0DE
:100200004FFE1FBD10B510BD00F090F91146FFF76D
:10021000F5FF03F033F800F0AEF903B4FFF7F2FF97
:1002200003BC00F0B1F900002C4B19680868B0E875
:10023000F04F80F30988BFF36F8F4FF0000080F319
:10024000118870470000000008480068006880F3CB
:1002500008884FF0000080F3148862B661B6BFF3DF
:100260004F8FBFF36F8F00DF00BF00BF08ED00E0CE
:10027000DFF80C00016841F470010160704700BFB5
:1002800088ED00E0EFF30980BFF36F8F134B1A681E
:100290001EF0100F08BF20ED108A20E9F04F10600B
:1002A00009B44FF0500080F31188BFF34F8FBFF3B4
:1002B0006F8F03F02DFC4FF0000080F3118809BC14
:1002C00019680868B0E8F04F1EF0100F08BFB0ECD6
:1002D000108A80F30988BFF36F8F70477800002081
:1002E000EFF3058070470000094880470948004740
:1002F000FEE7FEE7FEE7FEE7FEE7FEE7FEE7FEE7D6
:10030000FEE7FEE704480549054A064B7047000032
:100310003927000889010008484300204849002087
:100320004845002048450020D0ED060A90ED070A18
:10033000002930EE801A90ED080A31EE001A80EDA7
:10034000001AB0EE001A51EE400AC0ED010A80ED2D
:10035000020A08BF70470021C16001614161704716
:1003600053EA020C00F069802DE9F04B4FF00006D3
:10037000002B1FBFB3FA83F503FA05F424FA05F640
:100380005E4012BF1643B2FA82F502FA05F4C5F1D7
:1003900020051EBF22FA05FC44EA0C04203556EA6B
:1003A000044C4FEA144418BF641C4FF000084FF08F
:1003B0000009904271EB030C39D3002919BFB1FA3F
:1003C00081F701FA07F6B0FA80F700FA07F6C7F1ED
:1003D00020071EBF20FA07FC46EA0C062037B6FBB2
:1003E000F4FCA7EB0507103F07F01F0BCBF120062D
:1003F0000CFA0BFB2CFA06F644BFB3460026202F5E
:10040000A4BF5E464FF0000B5BEA060C08BF4FF03E
:10041000010B19EB0B09ABFB027C48EB0608C01B78
:1004200006FB02CC0BFB03CC71EB0C01C1E70B46C6
:10043000024641464846BDE8F08B13B54FF0000038
:100440004FF00001AFF30080BDE81C40704710B5CD
:10045000203AC0F00B80B1E81850203AA0E81850BC
:10046000B1E81850A0E81850BFF4F5AF5FEA027C7D
:1004700024BFB1E81850A0E8185044BF18C918C0EC
:10048000BDE810405FEA827C24BF51F8043B40F88D
:10049000043B08BF7047D20728BF31F8023B48BF72
:1004A00011F8012B28BF20F8023B48BF00F8012BB0
:1004B00070474FF0000200B5134694469646203927
:1004C00022BFA0E80C50A0E80C50B1F12001BFF40D
:1004D000F7AF090728BFA0E80C5048BF0CC05DF873
:1004E00004EB890028BF40F8042B08BF704748BFC1
:1004F00020F8022B11F0804F18BF00F8012B704735
:1005000070477047704710B500F008F8006810BDDC
:1005100010B5044600F002F8046010BD00487047B2
:10052000E842002000487047E84200207546FFF787
:10053000F9FFAE4605006946534620F007008546A0
:1005400018B020B5FFF7DEFEBDE820404FF00006F2
:100550004FF000074FF000084FF0000B21F00701AB
:10056000AC46ACE8C009ACE8C009ACE8C009ACE8EE
:10057000C0098D46704710B50446AFF30080204691
:10058000BDE81040FFF749BE01491820ABBEFEE7A9
:10059000260002007047000010B501280AD09FED28
:1005A000070A042001F068FEBDE810404FF4967081
:1005B00002F004BF9FED020AF3E7000000002043B1
:1005C0000000B44210B500210E4801F029FB0421BF
:1005D0000C4801F025FB08210A4801F021FB0C2101
:1005E000084801F01DFB0120FFF7D6FFBDE81040D1
:1005F0004FF47A709FED041ADFED040A9FED040AB0
:1006000000F008B868050020000016430000F04222
:100610000000000070B514212DED068BB0FBF1F544
:100620002C4C84B0F0EE419A94ED009AD4ED018AFE
:1006300094ED028AB0EE60AAF0EE40AA012D02DA33
:1006400001252E4601E0012638E000EE106A39EE61
:10065000C82A02AAF8EEC00A00EE105A01A968469C
:10066000B8EEC01A80EE810A3AEEC91AF0EE490AD5
:1006700041EE000A3AEE681AF0EE601AF0EE680AEF
:1006800041EE000AB0EE481A02EE001AB0EE610A1E
:1006900000F022F870B99DED000A012001F0ECFD98
:1006A0009DED010A022001F0E7FD9DED020A032005
:1006B00001F0E2FD142002F081FE761CAE42C4DDA2
:1006C000C4ED00AA84ED01AAC4ED029A04B0BDEC09
:1006D000068B70BD3400002070B514462DED088BDC
:1006E000B0EE608AF0EE408A0D460646B0EE41AAB2
:1006F000F0EE680AB0EE480A02F04AFA9FED389A26
:10070000DFED389A20EE090AC0EE290A28EEA80A81
:1007100008EE080AC6ED000A02F0D2FCF0EE408AAC
:100720009FED310A3AEE408A28EEA80A08EE080A40
:1007300002F0C6FC10EE100A2C49884203DD0120AD
:10074000BDEC088B70BDDFED2A0A9FED2A1A40EE42
:10075000000A70EEC10A9FED281A20EE011A80EE01
:10076000810A10EE100AB0F17E5F02DDB7EE000ADA
:1007700006E010EE100A10F1814F01D9BFEE000A19
:1007800002F07AF9B0EE40AAF0EE680AB0EE480A3C
:1007900002F0FEF9F0EE400A30EE8AAA2AEE090ACB
:1007A000C0EE290AB0EE4A0AC4ED000A02F018FBB6
:1007B0009FED12BA60EE0BAAB0EE4A0A02F0B8FB47
:1007C00020EE0B0A78EEEA0A38EE400A02F0E0F971
:1007D00020EE090A0020C0EE290AC5ED000AAFE7A5
:1007E00000003443DA0F49400000C54200801C433A
:1007F0000020BE450082CA4500001C4300009C4208
:10080000F0EE406AB7EE000AB0EE087A70EE444AA5
:1008100024EE046A24EEA40A26EE045A60EE245A5A
:1008200020EE070A20EE044A24EE010A24EE871A7D
:1008300005EEA60A61EE064A24EE211A05EEA01A7C
:1008400004EE820AF0EE410A05EE030A44EEA20A23
:1008500045EE230A7047FEE7704772B6FEE70000D8
:100860000B4880680168486A002200B24A6200EEC4
:10087000100ADFED080AB8EEC00A80EE201A9FEDDC
:10088000060A61EE000A9FED051A80EE810A7047A4
:10089000580100200000C344AF1A513E0AD7A33BC1
:1008A0000B4880680168486A002200B24A6200EE84
:1008B000100ADFED080AB8EEC00A80EE201A9FED9C
:1008C000060A61EE000A9FED051A80EE810A704764
:1008D000A00100200000C344AF1A513E0AD7A33B39
:1008E0002DE9F84FDFF8BCA10022012503264FF0C7
:1008F0000F090AF1040BAAF1040E00BF0B6805FAF8
:1009000002F42340A34270D10F7907F00307012FAF
:1009100001D0022F16D187684FEA420806FA08FC78
:1009200027EA0C07D1F80CC00CFA08FC4CEA070CBB
:10093000C0F808C04768A7430C79C4F3001494407A
:100940003C4344600C79E443A4070AD0C4684FEAEE
:10095000420C06FA0CF7BC438F6807FA0CF72743E2
:10096000C7600C7904F00304022C12D1D40800EB08
:10097000840CDCF820405707FF0E09FA07F824EA38
:100980000804D1F8108008FA07F848EA0408CCF8FF
:10099000208004684FEA420C06FA0CF7BC430F793A
:1009A00007F0030707FA0CF7274307604C6814F4B5
:1009B000403F70D03C4C276847F48047276024684C
:1009C00022F0030704F480440094384C07EB040C35
:1009D000DCF8084897074FEA177809FA08F7BC438C
:1009E000334FB84202D1002724E054E0314FB842DF
:1009F00001D101271EE0304FB84201D1022719E092
:100A00002E4FB84201D1032714E02D4FB84201D137
:100A100004270FE02B4FB84201D105270AE02A4FE7
:100A2000B84201D1062705E0284FB84201D1072777
:100A300000E0082707FA08F72743CCF80878DAF827
:100A400000405746D1F804C09C435FEACC2C00D547
:100A50001C433C60DBF800405F46D1F804C09C4377
:100A60005FEA8C2C00D51C433C60DEF800407746E2
:100A7000D1F804C09C435FEA8C3C00D51C433C6029
:100A8000084F083F3C68D1F804C09C435FEACC3C67
:100A900000D51C433C60521C102AFFF42FAFBDE868
:100AA000F88F0000083C014044380240003001400B
:100AB000000002400004024000080240000C024016
:100AC000001002400014024000180240001C0240C6
:100AD0000AB1816170470904FBE7000001488068A2
:100AE000704700006800002070B5040025D094F81D
:100AF0003D00002520B984F83C50204600F0B8F8AD
:100B0000242084F83D002068016821F00101016083
:100B10002068016841F4004101602068016821F407
:100B20000041016000F05EFA4D4A6168914201D8CF
:100B30004C4900E04C49884201D2012070BD4B492C
:100B40002368B0FBF1F15E6826F03F060E435E605D
:100B50006368934206D94FF4967359434FF47A73FE
:100B6000B1FBF3F12368491C1E6A26F03F063143AE
:100B700019626168914210D84900401EB0FBF1F241
:100B8000521CC2F30B02042A01D2042022E0B0FB63
:100B9000F1F0401CC0F30B001CE0A268F2B301EBC3
:100BA000C10303EB0116431EB3FBF6F35B1C43F4D6
:100BB00080431B0549D092B301EBC10202EB011146
:100BC000401EB0FBF1F0401CC0F30B0040F480402D
:100BD00040F400402168CA694CF6FF739A43104301
:100BE000C861D4E9071001432068026822F0C002FE
:100BF00011430160D4E9030101432068826848F28F
:100C0000FF339A4311438160D4E905010843216809
:100C1000CA6822F0FF021043C86001E00EE016E04F
:100C20002068016841F0010101602564202084F8FA
:100C30003D00256384F83E50002070BD01EB410665
:100C4000431EB3FBF6F35B1CB3E70120C2E701EBE5
:100C50004101401EB0FBF1F0401CC0F30B00B7E7B0
:100C6000A086010080841E0000093D0040420F0064
:100C700010B586B0044614216846FFF71AFC1449E3
:100C80002068884221D113480021026842F0020204
:100C90000260006800F0020005904FF44070009080
:100CA0001220CDE90101032003900420049069463D
:100CB0000948FFF715FE07481030016841F400119C
:100CC0000160006800F40010059006B010BD00003F
:100CD000005400403038024000040240024881685D
:100CE0000278114481607047680000200B4810B5FD
:100CF000016841F400710160016841F480610160A4
:100D0000016841F480710160032000F09FF80F201A
:100D100000F006F800F050F8002010BD003C024042
:100D200030B505461F4887B00024016841F0100126
:100D30000160006806A900F01000009001A800F012
:100D400031F90498A8B100F04DF940001649174A4E
:100D5000B0FBF1F11648491E026040F2E732C0E9EB
:100D60000324C0E90114846100F0A8FB040003D04F
:100D700015E000F037F9E9E70D4800F0EFFB04005B
:100D80000DD1362000F034F8102D07D2002229466C
:100D9000362000F03BF80748056000E0012407B06A
:100DA000204630BD4038024040420F000010004055
:100DB000B00500206C0000200C4882B0016841F4AE
:100DC00080410160006800F4804000900748001FE7
:100DD000016841F0805101600068002200F08050FD
:100DE00000900F21901E02B000F010B8443802406D
:100DF000002809DB00F01F0201219140400980001A
:100E000000F1E020C0F8001170470000F0B40E4B74
:100E10001B680C46C3F30223C3F10705042D00D958
:100E20000425191D072901D2002300E0DB1E01263D
:100E300006FA05F1491E214099409E40761E164053
:100E40003143F0BC01F007BE0CED00E0064900F0B4
:100E5000070208684FF6FF03184040EA0220034AE1
:100E600010430860704700000CED00E00000FA0538
:100E70002DE9F0470E46050065D0DFF81481D8F85B
:100E80000000F7B200F00700B04207D288F8007007
:100E9000D8F8000000F00700B04254D128683D4C5B
:100EA000810712D5400703D5206840F4E050206048
:100EB0002878000703D5206840F46040206020684F
:100EC000A96820F0F000084320602878C0072DD0E2
:100ED000304968680839012812D0022813D0032845
:100EE00011D00968890700292DDA216821F0030152
:100EF00001432160FFF7F2FD814641F2883A0EE09E
:100F000009688903EFE709688901ECE7FFF7E6FD67
:100F1000A0EB0901514502D90320BDE8F087206804
:100F2000696800F00C00B0EB810FEFD1D8F8001029
:100F3000404601F00701B14207D90770006800F090
:100F40000700B04201D00120E7E72878400705D527
:100F50002068E96820F4E050084320602878000702
:100F600006D52068296920F4604040EAC10020606D
:100F700000F048F82168084AC1F30311515CC840E9
:100F80000649086006480068FFF7CAFE0020C4E76B
:100F9000003C024008380240E43E00087400002093
:100FA0006C0000200F2202600C4A136803F0030358
:100FB0004360136803F0F0038360136803F4E053A5
:100FC000C36012684FF4E05303EAD202026104489E
:100FD000006800F007000860704700000838024011
:100FE000003C02400448054900680968044AC1F30E
:100FF0008221515CC84070477400002008380240CC
:10100000F43E0008154810B5006810F00C021448B2
:1010100013D01449042A0FD0082A0ED10F4C241FD4
:101020002268236802F03F025B0207D52068C0F304
:101030008810A0FB010106E0084610BD2168C1F33D
:101040008811A1FB00010023FFF78AF92168C1F391
:101050000141491C4900B0FBF1F010BD08380240C5
:101060000024F40040787D012DE9F84F04006ED093
:101070002078DFF84C93C007A9F104054AD009F1A4
:1010800004000168C1F38101012908D00068C0F3A0
:10109000810002280AD1D9F80000400206D528684C
:1010A000800337D560680028E1D033E06068B0F590
:1010B000803F10D0B0F5A02F286810D020F48030E9
:1010C0002860286820F4802028606068A8B1FFF7B5
:1010D00005FD06460DE0286840F48030F4E740F452
:1010E00080202860F7E700BFFFF7F8FC801B64282A
:1010F00073D828688003F7D50CE0FFF7EFFC0646AD
:1011000005E000BFFFF7EAFC801B6428F0D82868E0
:101110008003F7D42078DFF8AC8280074FF0000A14
:101120003ED5A748001D016811F00C0F08D00068DB
:10113000C0F3810002280BD1D9F80000400207D487
:101140002868800716D5E068012800D112E033E155
:10115000E068B8B10120C8F80000FFF7BFFC064600
:1011600005E000BFFFF7BAFC801B0228C0D8286842
:101170008007F7D52868216920F0F80040EAC1000F
:1011800028600DE0C8F800A0FFF7A8FC064604E0C0
:10119000FFF7A4FC801B02281FD828688007F7D41B
:1011A0002078000722D5864F87486169703771B172
:1011B00001210160FFF792FC064604E0FFF78EFC78
:1011C000801B022809D838688007F7D50EE0C0F8E0
:1011D00000A0FFF783FC064605E082E0FFF77EFCF7
:1011E000801B02287DD838688007F7D42078400714
:1011F00068D5DFF8CCB100270BF13C0BDBF8000021
:10120000C0000BD4DBF8001041F08051CBF8001087
:10121000DBF80000012700F0805000906B4E306832
:10122000C00510D4306840F480703060FFF756FC81
:10123000009005E0FFF752FC0099401A022850D8B0
:101240003068C005F6D55E4EA0686C3601280FD018
:101250000528306810D020F001003060306820F0A0
:1012600004003060A068B8B1FFF738FC00900FE0D0
:10127000306840F00100F4E740F004003060F7E728
:10128000FFF72CFC0099411A41F28830814266D860
:1012900030688007F4D50EE0FFF720FC009007E0EF
:1012A000FFF71CFC0099411A41F28830814256D860
:1012B00030688007F4D42FB1DBF8001021F08051A2
:1012C000CBF80010A069C8B33D49091D0968C1F3F6
:1012D000810102294AD00228504607D0C8F8600090
:1012E00000E03CE0FFF7FAFB04463BE04746C8F865
:1012F0006000FFF7F3FB064605E000BFFFF7EEFBDB
:10130000801B02282BD828688001F7D4D4E9070174
:101310000843A16A2E4A490802EB0141626A41EA88
:101320008211084394F82C1040EA0161C9F80010BA
:1013300001203866FFF7D2FB044606E03EE000BF1E
:10134000FFF7CCFB001B022809D828688001F7D5DD
:1013500034E000BFFFF7C2FB001B022802D90320C4
:10136000BDE8F88F28688001F4D427E00128F7D081
:10137000D9F80000E26900F4800191421CD1226A90
:1013800000F03F01914217D147F6C071626A0140F7
:10139000B1EB821F10D1A26A4FF0FF3300F440314D
:1013A00003EB5202B1EB024F06D194F82C1000F07F
:1013B0007060B0EB016F01D00120D1E70020CFE7D2
:1013C0000438024000004742800E4742007000404F
:1013D0000000FFFF7047704710B590F83C20012ACD
:1013E00022D0012280F83C20CA688C6822F4407226
:1013F00022434C6822F4806222430C6822F400628B
:1014000022430C6922F4805222434C6922F4005298
:101410002243C969002322F480420A4301684A64D6
:1014200080F83C30002010BD022010BD70B590F84F
:101430003C20012A32D0012480F83C40022280F86E
:101440003D2003685A689D6822F070060A6832439E
:101450005A60134B02689A4214D0B2F1804F11D0F7
:10146000104B9A420ED0104B9A420BD00F4B9A421F
:1014700008D00F4B9A4205D00E4B9A4202D00E4B29
:101480009A4204D1496825F080031943916080F89D
:101490003D40002180F83C10084670BD022070BD20
:1014A000000001400004004000080040000C004023
:1014B00000040140004001400018004010B5040045
:1014C00003D094F83D0010B107E0012010BD0020CA
:1014D00084F83C00204600F01FF8022084F83D000C
:1014E000211D206801F036F9012084F8460084F8B7
:1014F0003E0084F83F0084F8400084F8410084F8FE
:10150000420084F8430084F8440084F8450084F8DD
:101510003D00002010BD000008B500680C4988425D
:1015200008D10C48016841F001010160006800F039
:1015300001000BE00849884209D10648001F0168F4
:1015400041F004010160006800F00400009008BD53
:1015500000000140443802400008004090F83D106F
:10156000012901D001207047022180F83D10016857
:10157000CA6842F00102CA6000681149884214D06A
:10158000B0F1804F11D00F4988420ED00E498842E9
:101590000BD00E49884208D00D49884205D00D492C
:1015A000884202D00C49884204D1816801F00701C9
:1015B000062903D0016841F0010101600020704755
:1015C000000001400004004000080040000C004002
:1015D00000040140004001400018004070B504467E
:1015E00090F83C000025012817D0012684F83C60C3
:1015F000022084F83D002068826822F0770222F4FD
:101600007F4282600868502838D00DDC20284FD0F7
:1016100005DC90B3102811D14AE0022070BD3028BB
:1016200046D040280AD13BE060282FD070280DD04A
:10163000B0F5805F03D0B0F5005F12D0012584F8CB
:101640003D60002084F83C00284670BDCB68D1E99D
:101650000121206801F0F3F82068816841F07701EA
:1016600009E0CB68D1E90121206801F0E8F82068A1
:10167000816841F480418160E1E719E0CA68496806
:10168000206801F0B1F95021206806E0CA68496875
:10169000206801F0BAF96021206801F0DAF8CEE79D
:1016A000CA684968206801F09FF940212068F4E782
:1016B000226801461046F0E72DE9F0410D4604008E
:1016C00003D094F83D0018B108E00120BDE8F08196
:1016D000002084F83C00204600F040F8022084F806
:1016E0003D002068816844F2070291438160211D1A
:1016F000206801F02FF8226890689169166A2B68BB
:10170000AF69034340F20330814341EA0721A868EF
:10171000EF6908434FF6FC418843E96840EA072037
:10172000014328692F6A000140EA073008436968CD
:101730006D6926F0AA0646EA0515294393602268DA
:10174000906154F8460B0162012004F81F09E0750E
:101750002076E0762077A0750020B7E770B586B0D8
:10176000044614216846FEF7A4FE214A256800239A
:101770001F49103A02241F48B5F1804F1ED01E4E5B
:10178000B54219D10D6845F002050D60096801F0F8
:1017900002010591116841F001011160116801F029
:1017A00001010591C0210091CDE90143CDE9033448
:1017B000694600BFFFF794F806B070BD0D6845F0AC
:1017C00001050D60096801F001010591116841F002
:1017D00001011160116801F00101059103210091DF
:1017E000CDE901430121CDE903316946E2E700007B
:1017F00040380240000002400004004070B590F8FC
:101800003E60044690F83F5090F8423090F84320F4
:10181000022021B104290ED0012E1BD114E0012E8B
:1018200018D1012B16D184F83E0084F84200012221
:101830000021206820E0012D0CD1012A0AD184F872
:101840003F0084F8430014E0012D03D1012B01D1A6
:10185000012A01D0012070BD84F83E0084F83F00C9
:1018600084F8420084F8430001220021206800F03F
:10187000D9FF01220421206800F0D4FF206801680C
:1018800041F001010160002070BD70472DE9F04179
:1018900004460068C66805694FF00007A90713D51C
:1018A000B10711D5F91E01610120207720688069F8
:1018B0008007204602D0FFF7E8FF04E000F0EBF8D5
:1018C000204600F0ABF92777680716D5700714D5C6
:1018D00021686FF004000861022020772068806989
:1018E00010F4407F204602D0FFF7CFFF04E000F065
:1018F000D2F8204600F092F92777280715D530074F
:1019000013D521686FF00800086104202077206853
:10191000C0698007204602D0FFF7B7FF04E000F05F
:10192000BAF8204600F07AF92777E80616D5F006CF
:1019300014D521686FF01000086108202077206816
:10194000C06910F4407F204602D0FFF79EFF04E0FC
:1019500000F0A1F8204600F061F92777E80708D0E9
:10196000F00706D021686FF001000861204600F002
:10197000BBF9280608D5300606D521686FF080002F
:1019800008612046FFF726FD680608D5700606D5D3
:1019900021686FF040000861204600F0AFF9A8060A
:1019A0000AD5B00608D521686FF0200008612046EE
:1019B000BDE8F041FFF70FBDBDE8F08110B586B07E
:1019C000044614216846FEF774FD2368184C002075
:1019D000184A0221A34212D1136843F01003136086
:1019E000126802F0100205924FF420620092CDE9D5
:1019F000011003900120049069460F4813E00F4C3A
:101A0000A34212D1136843F008031360126802F076
:101A1000080205924FF470420092CDE90110039143
:101A2000049169460648FEF75BFF06B010BD000052
:101A30000000014030380240001002400008004021
:101A4000000C024070B5044690F83C0000250128C7
:101A50000FD0012084F83C006AB1042A0FD0082A74
:101A600011D00C2A13D00125002084F83C00284610
:101A700070BD022070BD206800F0F4FEF4E720681D
:101A800000F020FFF0E7206800F052FFECE720684C
:101A900000F082FFE8E7704710B5040003D094F827
:101AA0003D0010B107E0012010BD002084F83C008B
:101AB000204600F01EF8022084F83D00211D206819
:101AC00000F048FE012084F8460084F83E0084F8C7
:101AD0003F0084F8400084F8410084F8420084F814
:101AE000430084F8440084F8450084F83D00002059
:101AF00010BD704770B5044690F83C0000260D46B6
:101B000001280FD0012084F83C006AB1042A1DD0BE
:101B1000082A2FD00C2A3FD00126002084F83C0050
:101B2000304670BD022070BD206800F09BFE20682A
:101B3000816941F0080181612068816921F0040117
:101B40008161206881692A69114311E0206800F0F1
:101B5000B9FE2068816941F4006181612068816972
:101B600021F480618161206881692A6941EA02214A
:101B70008161D2E7206800F0DBFE2068C16941F096
:101B80000801C1612068C16921F00401C1612068B8
:101B9000C1692A69114311E0206800F0FDFE206848
:101BA000C16941F40061C1612068C16921F48061AB
:101BB000C1612068C1692A6941EA0221C161ACE7BB
:101BC00010B5040003D094F83D0010B107E00120E7
:101BD00010BD002084F83C00204600F01EF80220D2
:101BE00084F83D00211D206800F0B4FD012084F838
:101BF000460084F83E0084F83F0084F8400084F8F2
:101C0000410084F8420084F8430084F8440084F8DA
:101C1000450084F83D00002010BD7047704700006B
:101C200010B50446022249B104290ED0082913D068
:101C300094F84100012816D0012010BD94F83E0010
:101C40000128F9D184F83E200FE094F83F000128E4
:101C5000F2D184F83F2008E094F840000128EBD14D
:101C600084F8402001E084F841200122206800F03F
:101C7000D9FD16492068164A884201D0904203D106
:101C8000436C43F4004343642068884213D0B0F1AE
:101C9000804F10D00F4988420DD00F4988420AD09A
:101CA0000E49884207D0904205D00D49884202D0A3
:101CB0000C49884204D1816801F00701062903D04C
:101CC000016841F001010160002010BD00000140E9
:101CD000000401400004004000080040000C0040E7
:101CE000004001400018004000680349884201D1CB
:101CF000FEF7F4BF70470000001000407047FEE799
:101D000010B58EB01C220B496846FEF7A0FB0021DF
:101D1000684601F05FFB084C06491C2220601C311C
:101D200007A8FEF794FB002107A801F053FB6060B1
:101D30000EB010BDAC3E00086000002030B587B08A
:101D400014216846FEF7B5FB1D480024016841F0E8
:101D500010010160016801F010010591016841F076
:101D600080010160016801F080010591016841F086
:101D700001010160016801F001010591016841F074
:101D800008010160016801F008010591016841F056
:101D90000201016000680B4D00F002000590002276
:101DA0003C212846FEF794FE3C2000900120CDE91E
:101DB0000104694628460394FEF792FD07B030BD42
:101DC00030380240001002400D4810B50B49016048
:101DD0000C49416000214FF480428160C0E9031248
:101DE00041618161C1610162FEF77EFE002803D07E
:101DF000BDE81040FEF731BD10BD000000540040AA
:101E00003C040020A086010010B596B000240F9479
:101E100010941194129413941C2168461494FEF7A4
:101E200048FB202107A8FEF744FB2B482949C0E9BD
:101E3000001441F26701C0E9024104614461846118
:101E4000FFF73CFB08B1FEF708FD4FF480500F9000
:101E50000FA92148FFF7C2FB08B1FEF7FEFC1E48A0
:101E6000FFF71AFE08B1FEF7F8FC139413A91A48FD
:101E70001494FFF7DBFA08B1FEF7EFFC009401942D
:101E8000029403940494059400226946124806942F
:101E9000FFF7D8FD08B1FEF7E0FC042269460E48C2
:101EA000FFF7D0FD08B1FEF7D8FC07940894099419
:101EB0004FF400500A94CDE90B4007A906480E9450
:101EC000FFF78AFA08B1FEF7C8FC0348FFF776FD72
:101ED00016B010BD000001409004002010B58CB079
:101EE00024216846FEF7E5FA0024154809944FF0CE
:101EF00080410A94C0E900144FF6FF71C0E9024125
:101F0000046184610120CDE90004CDE90204049458
:101F1000CDE905400794694609480894FFF7CCFBD2
:101F200008B1FEF79AFC099409A905480A94FFF73D
:101F30007DFA002801D0FEF790FC0CB010BD000027
:101F4000D804002010B58CB024216846FEF7B1FA01
:101F500000241548099413490A94C0E900144FF667
:101F6000FF71C0E90241046184610120CDE90004F0
:101F7000CDE902040494CDE90540079469460A4876
:101F80000894FFF799FB08B1FEF767FC099409A9CB
:101F900005480A94FFF74AFA002801D0FEF75DFCD5
:101FA0000CB010BD000400402005002010B58EB01C
:101FB00000240794089409940A940B941C21684601
:101FC0000C94FEF776FA2A48284901605321C0E9AB
:101FD000011444F61F61C0E903148461FFF76EFA2F
:101FE00008B1FEF73AFC4FF48050079007A920484B
:101FF000FFF7F4FA08B1FEF730FC1D48FFF7E0FDEB
:1020000008B1FEF72AFC0B940BA919480C94FFF7B2
:102010000DFA08B1FEF721FC6020CDE9000402941E
:102020000022694612480494FFF764FD08B1FEF7E8
:1020300014FC042269460E48FFF75CFD08B1FEF768
:102040000CFC082269460A48FFF754FD08B1FEF768
:1020500004FC0C2269460648FFF74CFD08B1FEF768
:10206000FCFB0348FFF7AAFC0EB010BD00080040BF
:1020700068050020FEE7FEE713489FED142A00F1F3
:10208000100180ED020AC0ED030A30EE020A80ED75
:10209000081AC0ED091A81ED000AB6EE000A70EECA
:1020A000800A31EEC00AC1ED010A71EE420A083120
:1020B000C1ED000A81ED010A9FED050A012180EDC5
:1020C000010A0170704700000C000020CDCC4C3E8E
:1020D0000000000070EE600A90ED010A90ED031A16
:1020E000D0ED001A90ED042A20EE010A01EEA00ABC
:1020F000D0ED021A01EE820AD0ED051A80ED041A25
:10210000C0ED030A30EE210A80ED050AD0ED090A80
:10211000F4EEC00AF1EE10FA01D2B0EE600AF1EE70
:10212000600AF4EEC00AF1EE10FA01DDB0EE600ACA
:10213000704710B500F118022DED028BB0EE618AE8
:102140000446012182EC030AFEF7EEF884ED098AC9
:10215000BDEC028B10BD000010EE100A0B499FED84
:102160000C1A884205DA00BFC0EE011A21EEA00A5F
:10217000704710EE100A0749884204DDF7EE001A96
:1021800031EEC00AF0E7B0EE600A70479A99193E46
:102190009A99193E9A99593F00EE100A10B50C46CB
:1021A000B8EEC00A064800F00DF800EE104A0448E8
:1021B000BDE81040B8EEC00A483000F003B8000097
:1021C0005801002010B504462DED028BB0EE408A78
:1021D00018EE100A244A2549904202DD9FED248A18
:1021E00005E018EE100A884201D99FED228A218A63
:1021F000E068B5EEC08AF1EE10FA08DB0122FEF7C6
:1022000067FC218B00226069FEF762FC09E0002276
:10221000FEF75EFC218B01226069FEF759FCB1EEEE
:10222000488A606868B1042813D0BCEEC80A2168E7
:10223000082810EE100A096813D00864BDEC028B60
:1022400010BD2168BCEEC80A096810EE100A486388
:10225000F4E72168BCEEC80A096810EE100A88632A
:10226000ECE7C863EAE7000000388345003883C51F
:1022700000388345003883C5DFED180AB5EEC00A83
:10228000154AF1EE10FA02D29FED150A05E010EEA4
:10229000101A914201DDB0EE600A012880EE201A8A
:1022A000DFED100A9FED100A01EE200ABCEEC00A15
:1022B00010EE101A8AB20D49096807D0022807D01B
:1022C000032807D0042800D10A6470474A63704786
:1022D0008A637047CA637047000034430000344388
:1022E000000000000000FA440000FA4368050020E6
:1022F0002DED088BDFED5A8AF0EE681ADFED599A62
:10230000B0EE698AB0EE481A9FED579AB0EE000A17
:102310005648F0EE490AFFF70CFF5448F0EE681AF1
:10232000B0EE481AF0EE490AB0EE000A2830FFF786
:1023300000FFDFED4F1A4D48B0EE481AF0EE480AA4
:10234000B1EE040A5030FFF7F4FE9FED4AAA4A4C62
:10235000207800287BD004F1080094ED014A90EC2D
:10236000080AFEF74DFAB0EE409AB0EE608ADFED53
:10237000430A94ED010AFFF7EFFE414DF0EE408A6B
:1023800095ED000A39EE409A95ED010A38EE408A43
:10239000F0EE490AB0EE480A00F0FAFBD5ED020A69
:1023A000384930EE600A10EE100A884201DD30EE46
:1023B0004A0A354910EE100A884201D930EE0A0A5D
:1023C0002A485030F1EE400AB0EE690AFFF782FE6B
:1023D00078EEC0AA38EE80BAFEF742FAF0EE400A74
:1023E000B0EE6A0A2148FFF775FEF0EE408AFEF76C
:1023F00057FA1E48F0EE400AB0EE4B0A2830FFF7BD
:1024000069FEBDEEC00A10EE100ABDEEE80A01B288
:1024100010EE100A00B2FFF7BFFE29EE090A08EE1F
:10242000080A00F04DFE10EE100A1849884212DA30
:1024300094ED010ADFED160A30EE200A10EE100AC4
:1024400084ED010AB0F17E5F05DB002020700021E1
:102450000846FFF7A1FE142000F0B0FF78E7000067
:1024600000007A4400000000CDCCCC3DE00000200C
:1024700000004843D00FC9400C000020CDCCCC3E1A
:1024800000000020D00F4940D00F49C0CDCCCC3D3A
:102490000AD7233C2DED068B40F6B83000F08EFFB6
:1024A000FEF790F84FF4FA6000F088FF6A4C94EC65
:1024B000040AFFF7E1FD694D02E0642000F07EFFB1
:1024C00028780028F9D14FF47A7630469FED64AA37
:1024D000B0EE4A1ADFED638AF0EE680ADFED629A29
:1024E000B0EE690AFEF796F80120FEF755F830467F
:1024F000B2EE0E1AF0EE680AB0EE690AFEF78AF83C
:102500000020FEF749F87710384600F057FF3046B4
:102510009FED568AB0EE690AF0EE480AB0EE601AF6
:10252000FEF778F8D4ED071A94ED061AD4ED030AF5
:1025300094ED020AFFF7A0FD02E0642000F03EFFE8
:1025400028780028F9D1B0EE689AF0EE698A304612
:10255000B0EE4A1AF0EE490AB0EE680AFEF75AF8F1
:102560000120FEF719F8F0EE480A3046B0EE601A86
:10257000B0EE680AFEF74EF894EC021AD4ED070AA2
:1025800094ED060AFFF778FD02E0642000F016FFE4
:1025900028780028F9D194EC020AD4ED051A94EDBC
:1025A000041AFFF769FD02E0642000F007FF2878B5
:1025B0000028F9D13046B0EE4A1AF0EE490AB0EEE2
:1025C000680AFEF727F80120FDF7E6FF3046B2EE75
:1025D0000E1AF0EE490AB0EE680AFEF71BF800206A
:1025E000FDF7DAFF384600F0E9FEF0EE480A304623
:1025F000B0EE601AB0EE680AFEF70CF804F11000B5
:1026000090EC040AFFF738FD02E0642000F0D6FEEB
:1026100028780028F9D130469FED151AF0EE490AC6
:10262000B0EE680AFDF7F6FF0120FDF7B5FFF0EE0A
:10263000480A3046B0EE601AB0EE680AFDF7EAFFCD
:1026400094EC021AD4ED070A94ED060AFFF714FD84
:10265000304600F0B3FEFBE7400000200C000020F5
:1026600000004842000048430000000000001643FC
:102670000000404210B5502080F31188BFF34F8F07
:10268000BFF36F8F01F044FB18B104494FF0805045
:102690000860002080F3118810BD000004ED00E008
:1026A00030B593B030216846FDF703FF14210CA824
:1026B000FDF7FFFE1E480025016841F080510160D2
:1026C000006800F0805011901A48016841F4804180
:1026D00001600068022400F4804011900120009005
:1026E000000401908001CDE90640192008904FF4C4
:1026F000A870CDE9090404200B906846FEF7B4FCED
:1027000008B172B6FEE70CA90F2081E831004FF442
:10271000A0500F904FF48050109005210CA8FEF7A8
:10272000A7FB002801D072B6FEE713B030BD000051
:1027300040380240007000400248016841F47001D6
:102740000160704788ED00E00148FFF79FB8000086
:10275000B0050020F0B50268274B284D284E294FC0
:10276000294C4FF0804C984209D0604507D0A842D0
:1027700005D0B04203D0B84201D0A04204D122F02B
:10278000700E4A6842EA0E0298421BD0604519D08A
:10279000A84217D0B04215D0B84213D0A04211D0F1
:1027A0001A4DA8420ED01A4DA8420BD0194DA8427E
:1027B00008D0194DA84205D0184DA84202D0184D96
:1027C000A84203D122F44075CA682A434D6922F019
:1027D00080022A438D68C5620D688562984201D0E7
:1027E000A04201D109690163016841F0040101605F
:1027F000012141610260F0BD000001400004004081
:1028000000080040000C004000040140004001406E
:10281000004401400048014000180040001C0040F6
:102820000020004010B501F01F030121046A994007
:102830008C430462016A9A401143016210BD10B5D5
:10284000846842EA032224F47F440A4322438260DC
:1028500010BD826822F070020A4342F007018160D5
:1028600070470000F0B5036A026A22F001020262BA
:1028700042688469124E24F073050C682C4323F0DF
:1028800002058B682B430D4DA84201D0B04205D103
:1028900023F00807CB683B4323F00403A84201D090
:1028A000B04205D14D6922F4407215438A692A432A
:1028B00042608461496841630362F0BD00000140E9
:1028C00000040140F0B5026A036A23F010030362BA
:1028D000436884690D6824F4E64444EA05248D685D
:1028E00022F0200242EA05120F4D104EA84201D0FC
:1028F000B04206D1CF6822F0800242EA071222F0ED
:102900004002A84201D0B04207D14D6923F4406390
:1029100043EA85038D6943EA85034360846149681E
:1029200081630262F0BD000000000140000401402C
:10293000F0B5026A036A23F4807303624368C469D2
:1029400022F4007224F073050C68124E2C438D683B
:1029500042EA05220E4DA84201D0B04206D1CF680E
:1029600022F4006242EA072222F48062A84201D0E7
:10297000B04207D14D6923F4405343EA05138D69F2
:1029800043EA05134360C4614968C1630262F0BD54
:10299000000001400004014030B5046A026A22F4DC
:1029A000805202624268C3690D6823F4E64343EA39
:1029B00005238D6824F4005444EA0534084DA842E8
:1029C00002D0084DA84204D14D6922F4804242EA67
:1029D00085124260C36149680164046230BD000031
:1029E000000001400004014010B5036A046A24F0AD
:1029F00001040462846924F0F00444EA021423F020
:102A00000A020A438461026210BD10B5036A046AB7
:102A100024F010040462846923F0A00324F47044B9
:102A200044EA023243EA01118261016210BDFEE70D
:102A30004100080218BF04200A0E18BF40F0010030
:102A40004FF07F4232EA010108BF40F00200012846
:102A500008BF052070470907090E002804DB00F1B4
:102A6000E02080F80014704700F00F0000F1E02033
:102A700080F8141D7047000010B510EE104A4FF09A
:102A80001A402DED028B00EB4400B0F1C85F4AD82C
:102A90004FF0FC40B0EB440F22D2B0EEC00AF7EE8C
:102AA000000A30EEC00AF6EE000A20EE208A18EE88
:102AB000100A00F0E3FE00EE100A14F0004F1DBFF4
:102AC0009FED281ADFED280AB1EE400A9FED271A84
:102AD00008BFF0EE410AF8EE001A20EE210A05E0E8
:102AE00020EE008A9FED221ADFED220ADFED221A86
:102AF0009FED222A70EEC00A20EE080A08EE212A75
:102B0000DFED1F1A48EE021A9FED1E2A08EE212A59
:102B1000DFED1D1A48EE021ABDEC028B40EE610A91
:102B200030EE810A10BD4FF0CC40B0EB440F82BFB5
:102B30009FED160ABDEC028B10BD4FF07F40B0EB4D
:102B4000440F05D2BDEC028BBDE8104000F0D5BAB1
:102B50000120FDF7DDFCBDEC028BBDE8104000F06C
:102B6000D3BA00000000494022AA7D3A00000000CC
:102B70000000C93F22AAFD3924FE1C3DC78AD83C6B
:102B80001E67383D1B93993DAFAA2A3EDB0FC93F14
:102B900010EE100A10B510EE901A4FF0684202EBDA
:102BA00040032DED028BB3F1654F3CBF02EB4102B8
:102BB000B2F1654F7CD200BFC0F3C753C1F3C75217
:102BC0009A1A1B2A09DD10F0004F14BF9FED6E0A00
:102BD0009FED6E0ABDEC028B10BD12F11A0F1BDACD
:102BE00011F0004F09D010F0004F0CBF9FED680AA4
:102BF0009FED680ABDEC028B10BD80EE208A18EEB6
:102C0000100AFFF715FF042808BF00F085FAB0EEA0
:102C1000480ABDEC028B10BD4200B2EB410F37D920
:102C200010F0004F19BFDFED5C1A9FED5C1ADFED6D
:102C30005C1A9FED5C1AB0EE602A0A46F1EE400A7B
:102C400080F00041B0EE420A10460A1A5200B2F17A
:102C5000807F34D2484010F0004FDFED532A9FEDC3
:102C6000533A1DBFBEEE002A71EEE21A31EE431A4E
:102C7000B6EE002A04BF71EEA21A31EE031AF0EE8E
:102C8000402A42EE602A40EE020A82EEA02A18E0B4
:102C900011F0004F04BF9FED461AF0EE411AD4D058
:102CA00010F0004F1CBFDFED431A9FED431A00E008
:102CB00026E004BFDFED411A9FED411AC5E780EE23
:102CC000202A22EE020ADFED3F0ADFED3F2ABDECAB
:102CD000028B40EE202ADFED3D0A40EE220ADFEDB6
:102CE0003C2A40EE202ADFED3B0A40EE220A22EE8B
:102CF000000A00EE201A31EE020A30EE210A10BD61
:102D00004FF07F42B2EB400F28BFB2EB410F05D22C
:102D1000BDEC028BBDE8104000F0F2B940EA0103BF
:102D20005B0008BF41F0FF410BD0B2EB400F08BF82
:102D3000B2EB410F08D120F0804000EE100A21F0E4
:102D4000804100EE901A37E7B2EB400F12BF5FEA06
:102D5000410240F0FF4001F000413FF42DAF4A0036
:102D600092EA40033FF528AF002AACBF9FED1A1A44
:102D70009FED1A1A20EE010A60EE810A10EE100A89
:102D800010EE901A18E70000DB0FC9BFDB0FC93F38
:102D9000DB0F4940DB0F49C00000C9BF22AAFDB9C3
:102DA0000000C93F22AAFD390060ED3EC30ACE37BC
:102DB00000000000000049C022AA7DBA000049407E
:102DC00022AA7D3A2DAD65BD8FB8D53D0FB511BE98
:102DD00061C84C3EA8AAAABE0000804F0000802F08
:102DE00010EE101A08B5444A6846B2EB410F28D9D4
:102DF0004FF0E640B0EB410F94BF00204FF0FF30A2
:102E000000900098002861DB60EE000A10F0010FCE
:102E100045D010F0020FDFED391A9FED391A00EEA0
:102E2000E11ADFED381A40EE811A21EEA01AF0EE19
:102E3000400A40EE010A08BFF1EE600AB0EE600AF7
:102E400008BD314B21F0004293423CD911F0004FB4
:102E5000DFED2E0A20EE201ADFED2D0A19BF31EE2C
:102E6000601A71EE200A31EE201A71EE600ABDEE92
:102E7000E01A11EE100A9FED271A00F0030000EE91
:102E8000C10A9FED251A009000EEC10A9FED231A9A
:102E900000EEC10A9FED221A00EEC10AB1E79FEDD4
:102EA000211A9FED210A10F0020F00EE810A9FED1A
:102EB0001F1A00EE801AB7EE000A00EE810A18BF52
:102EC000B1EE400A08BD00F02FF99AE710EE100AA3
:102ED0004000B0F17F4F3CBFB7EE000A08BD07D1FC
:102EE0004FF00100FDF714FBBDE8084000F00CB9FD
:102EF000BDE8084000F001B9B61F927E336D4C3931
:102F0000DA82083CA0AA2ABE490E494683F9223F2C
:102F10000000004B0000C93F00A0FD390020A23393
:102F20001A61342CB93AB2BACA9F2A3DDDFFFFBEFE
:102F300000B510EE101A2DED028B81B0524A684692
:102F4000B2EB410F2ED94FF0E640B0EB410F94BFEA
:102F500000204FF0FF3000900098B0EE408A00282B
:102F60006ADB10F0010F4BD068EE080A9FED471A9C
:102F70009FED470A00EE810A9FED461A10F0020FFE
:102F800000EE801AB7EE000A00EE810A02BF01B01F
:102F9000BDEC028B00BD00BF01B0B1EE400ABDEC3C
:102FA000028B00BD3C4B21F00042934241D911F00D
:102FB000004FDFED3A0A20EE201ADFED390A19BF83
:102FC00031EE601A71EE200A31EE201A71EE600ABD
:102FD000BDEEE01A11EE100A9FED321A00F0030068
:102FE00000EEC10A9FED301A009000EEC10A9FED7D
:102FF0002F1A00EEC10A9FED2E1A00EEC10AABE7B0
:1030000028EE080A9FED2B1ADFED2B0A10F0020FB5
:1030100040EE410A9FED291A00EE201A61EE000AE7
:10302000B0EE480A08EE200AB6D101B0BDEC028B22
:1030300000BD00F079F88FE718EE100A4000B0F1FB
:103040007F4F0DD218EE100AFFF7F2FC042808BFDC
:1030500000F062F8B0EE480A01B0BDEC028B00BD92
:1030600009D10120FDF754FA01B0BDEC028B5DF8E7
:1030700004EB00F049B801B0B0EE480ABDEC028B99
:103080005DF804EB00F039B8B61F927EB93AB2BAD7
:10309000CA9F2A3DDDFFFFBE490E494683F9223F04
:1030A0000000004B0000C93F00A0FD390020A23302
:1030B0001A61342C336D4C39DA82083CA0AA2ABE3E
:1030C00010B52DED028BB1EEC08A18EE100A20F07B
:1030D0000040C0F1FF40C00F0AD010EE100A20F0EF
:1030E0000040C0F1FF40C00F04BF0120FDF710FAFF
:1030F000B0EE480ABDEC028B10BD30EE000A7047FE
:1031000030EE200A70470000DFED020A80EEA00AD0
:1031100070470000000000009FED020A20EE000A48
:1031200070470000000000102DE9F0014FF07F42D1
:10313000B2EB410F9FBF4FF0FF310160BDE8F001DE
:1031400070474FF0004242EA0123C1F3C752783A78
:10315000551112F01F0C434CCCF120067C44C1F3F6
:10316000C752A2F178024FEA621204EB820254F8CD
:10317000254008BFD2E9015612D0556804FA0CF474
:1031800025FA06F73C43976805FA0CF527FA06F886
:10319000D26807FA0CFCF24045EA08054CEA020640
:1031A000A4FB034CA5FB0352A6FB03631D449D42F5
:1031B00034BF012600261319334416B1934202D9B5
:1031C00003E0934201D2012200E00022624402F1B6
:1031D000200C9206DC0C42EA443200EE102A5B031B
:1031E000DFED210AF8EEC01A00EE103A4FEA9C1CFF
:1031F00011F0004FB8EE400AC0F800C020EE201ACF
:1032000000EE105ADFED190AB8EE400A20EE200A4F
:1032100071EE810A70EE800A10EE902A02F50062CB
:103220006FF30B0200EE902A70EEE11A31EEC11A34
:10323000DFED101A30EE411A9FED0D0A20EE800AE4
:1032400001EE210A9FED0C1A00EE810A04BFBDE8D1
:10325000F0017047CCF180510160BDE8F001B1EEA2
:10326000400A70479C0D0000000000360000802CD2
:1032700022AAFD29DB0FC92F0000C92F08B5FDF7D1
:1032800035FDFFF70DFAFEF759FDFEF7BDFDFEF720
:1032900025FEFEF757FEFEF789FEFEF795FD00219D
:1032A0003D48FEF7BDFC04213B48FEF7B9FC3A4817
:1032B0000068416C41F400414164384800210268D3
:1032C00042F010020260006800F0100000903348E5
:1032D0001430026842F001020260006800F0010050
:1032E00000902F48026822F440220260026842F4F3
:1032F00000220260426A22F0F0024262426A42F018
:1033000010024262026822F440020260026842F443
:1033100000020260426A22F470424262426A42F44F
:1033200080524262826842F44C0282601D48016011
:10333000816241F26701C16201214161816921F02D
:1033400070018161816941F060018161816921F4CD
:10335000E0418161816941F4C0418161816940F648
:10336000080211438161016A41F011010162416C5F
:1033700041F400414164016841F0010101603C21D8
:103380000948FEF73BFA3C210848FEF737FAFEF7FA
:10339000B7FC00F01AF8FEE7900400203038024035
:1033A0000010024000000140D80400202005002049
:1033B00001460020842900D0C81C704710B500B910
:1033C000012000F041FB002010BD10B500F062FBB1
:1033D000002010BD7FB50D4604464169B0F90800D4
:1033E00081B1A16971B1FFF7E3FFD4E905128DE85E
:1033F0000700D4E900102B46226900F05EFC039020
:1034000004B070BDFFF7D4FF03A9CDE90001208A05
:103410002B4682B2D4E9001000F022FC012801D032
:103420000020EDE70398EBE72DE9F041184C0F463B
:103430000546E6682068001D00F03FFA38B92068AC
:1034400090F82C1001208840216981432161681C7B
:1034500007D137B12168BDE8F0410E48091D00F0E1
:103460006FBA20683544B5424560216805D2A06B2B
:10347000BDE8F041091D00F04BBA606B091D00F07A
:1034800047FAA06A854200D2A562BDE8F08100003B
:1034900078000020D40600202DE9F041054600F018
:1034A0005BFA2E4CA068401CA06020682C4F10B125
:1034B000606940B32DE02560A068012829D100266D
:1034C00006EB860007EB800000F014FA761C072E4E
:1034D000F6D323488C3000F00DFA2148A03000F0DC
:1034E00009FA1F48B43000F005FA1D48C83000F052
:1034F00001FA1B48DC3000F0FDF919488C3060639C
:103500001430A06305E02068E96AC06A884200D8E8
:103510002560606A401C6062E96A01202269884077
:103520001043206101EB810007EB8000291D00F0B2
:1035300007FA00F031FA606900280CD02068E96AC7
:10354000C06A884207D207494FF080500860BFF335
:103550004F8FBFF36F8FBDE8F0810000780000202F
:10356000F805002004ED00E010B5044690F8510085
:1035700058B101280CD002280FD0502080F31188B8
:10358000BFF34F8FBFF36F8FFEE7206B00F018FA89
:103590002046BDE8104000F013BA10BD10484FF4AB
:1035A0007051420706D0C01D0D4920F00700411A96
:1035B000C1F570510B4A00230144C2E900030839E8
:1035C000183A21F0070111604B600B600B1AC0E93B
:1035D000001393604FF0004053605061704700004B
:1035E000E8060020CC000020144E154CA6F1C807B8
:1035F0004FF08058DFF84C9012E000BF00F0ACF9BB
:10360000F068C568281D00F058F9A068401EA06049
:103610006068401E606000F0BFF92846FFF7A4FF15
:1036200060680028EAD138680128F9D9C9F8008013
:10363000BFF34F8FBFF36F8FF2E70000C00600208B
:103640007800002004ED00E02DE9F0479A46DDE91E
:10365000098481466FF00303206B03EB8202104460
:10366000089E20F00707780707D0502080F31188C4
:10367000BFF34F8FBFF36F8FFEE7002561B10020CE
:1036800023180A5C83F834200A5C12B1401C10280D
:10369000F6D384F8435001E084F83450072E00D369
:1036A0000626E662C4E91165201D00F02EF904F13A
:1036B000180000F02AF92461C6F107006462A061D5
:1036C000E56484F8505052464946384600F0C0F848
:1036D0002060B8F1000F01D0C8F80040BDE8F087C5
:1036E00030B5114900E011460A688242FBD34B68AD
:1036F0005C18844203D14068184448600846436817
:103700001C18944209D1084C183C2468A24209D0E4
:1037100052681A4442600A6812680260814200D00E
:10372000086030BD0460F9E7CC0000200648416B1A
:10373000096829B1416BC968C968496881627047E5
:103740004FF0FF31FAE70000780000200848406899
:10375000401C4FF0500080F3118804D0BFF34F8F0E
:10376000BFF36F8FFEE7BFF34F8FBFF36F8FFEE79F
:10377000D40000202DE9F0410546002700F0C0F9F3
:10378000324E306808B9FFF709FF706905424ED123
:10379000C5B3083568070ED005F00700C0F1080072
:1037A0000544680707D0502080F31188BFF34F8F7E
:1037B000BFF36F8FFEE72DB37068854237D823487B
:1037C000183001460C6801E020460C466168A942A9
:1037D00002D221680029F7D131688C4227D00768CE
:1037E0002168016060680837411B10290FD96019F2
:1037F000420708D0502080F31188BFF34F8FBFF3EA
:103800006F8FFEE713E041606560FFF769FF616855
:103810007068401A7060B268904200D2B0607069FF
:1038200001430020C4E90001F068401CF06000F092
:10383000D5FA780707D0502080F31188BFF34F8F57
:10384000BFF36F8FFEE73846BDE8F081B40000207B
:1038500010B5031F4FF080741C601B1F21F0010185
:103860001960191F044B0B6014390A60091F6FF0AF
:10387000020244380A6010BD4D37000810B500EE52
:10388000100A2DED028BB1EEC08A18EE100A20F05E
:103890000040C0F1FF40C00F0AD010EE100A20F027
:1038A0000040C0F1FF40C00F04BF0120FCF730FE14
:1038B00018EE100ABDEC028B10BDD0E9013201698F
:1038C0009A60D0E901235A604A68824201D1826835
:1038D0004A60002202610868401E0860086870475C
:1038E000034B036003F154000860802010607047B0
:1038F000E801002000F108014FF0FF32C0E9011299
:10390000C1600161002101607047002101617047C1
:1039100030B50B685A1C02D000F1080202E00269BF
:1039200004E02246546825689D42FAD953684B60EA
:1039300099608A60516008610168491C016030BD6E
:1039400042684A6093688B6093685960916008612F
:103950000168491C01607047502080F31188BFF353
:103960004F8FBFF36F8F0A494868401C4860012899
:103970000CD10848006810F0FF0F07D0502080F3EA
:103980001188BFF34F8FBFF36F8FFEE770470000C2
:10399000D400002004ED00E00849486828B1401E2A
:1039A000486001D180F311887047502080F311885E
:1039B000BFF34F8FBFF36F8FFEE70000D4000020EE
:1039C00070B500282AD0164DA0F108046068696916
:1039D000084207D1502080F31188BFF34F8FBFF307
:1039E0006F8FFEE722683AB1502080F31188BFF351
:1039F0004F8FBFF36F8FFEE78843606000F080F861
:103A000060686968084468602046FFF769FE2869B5
:103A1000401C2861BDE8704000F0E0B970BD0000B6
:103A2000B40000204FF0E0200021016181610549D0
:103A30004FF47A720968B1FBF2F1491E4161072126
:103A4000016170477400002010B5020014D00F48C7
:103A5000006B38B1502080F31188BFF34F8FBFF354
:103A60006F8FFEE700F04CF800211046FFF7DCFCFA
:103A700000F0B4F9002807D105494FF080500860E4
:103A8000BFF34F8FBFF36F8F10BD00007800002091
:103A900004ED00E010B586B00024039405AA04A943
:103AA00003A80494FFF71CFFDDE903010094CDE9AE
:103AB000011000230EA11048059A00F0FEF80F49EE
:103AC0000028C86211D0502080F31188BFF34F8FB7
:103AD000BFF36F8F4FF0FF30886201204861CC60E8
:103AE00006B0BDE8104000F041B806B010BD0000BF
:103AF00049444C4500000000E935000878000020EA
:103B00000248016B491C01637047000078000020E7
:103B10001448016B11B10121C16170470021C161DD
:103B20000169B1FA81F1C1F11F0101EB81020E4976
:103B300051F822306BB101EB820101F108034A68B0
:103B400052684A609A4201D152684A60D168016065
:103B50007047502080F31188BFF34F8FBFF36F8FF2
:103B6000FEE7000078000020F80500201CB537486B
:103B70000168374A914207D1502080F31188BFF382
:103B80004F8FBFF36F8FFEE700683149491E8842AF
:103B900007D1502080F31188BFF34F8FBFF36F8F91
:103BA000FEE72C4908780190FF20087008788DF80E
:103BB00000009DF800009DF8002000F0F000904209
:103BC00007D0502080F31188BFF34F8FBFF36F8F62
:103BD000FEE79DF80000204C00F050002070072008
:103BE000A06005E09DF8002052008DF80020401EE6
:103BF0009DF800201206F5D4A060032807D05020BD
:103C000080F31188BFF34F8FBFF36F8FFEE74FF440
:103C10004070A060019808700C482030016841F4A1
:103C200070010160016841F070410160FFF7FAFE28
:103C300000206060FCF71CFB0848016841F040412F
:103C40000160FCF701FB00201CBD000000ED00E05E
:103C500071C20F4100E400E0D400002034EF00E026
:103C60002DE9FF5F8346DDE90E87994616468A46B1
:103C70009000FFF77FFD05001CD05420FFF77AFD70
:103C8000040014D00020256384F85100CDE90240DF
:103C9000CDE900874B46324651465846FFF7D4FCE3
:103CA0002046FFF7F9FB012004B0BDE8F09F28464D
:103CB000FFF786FE4FF0FF30F6E7F0B585B0DDE99F
:103CC0000B640A9DA6B1DCB1542700972663022637
:103CD00084F85160002604AFCDE90246CDE90057D3
:103CE000FFF7B2FC2046FFF7D7FB049805B0F0BD04
:103CF000502080F31188BFF34F8FBFF36F8FFEE723
:103D0000502080F31188BFF34F8FBFF36F8FFEE712
:103D10002DE9F0412F4C0026206B28B1A069401CF2
:103D2000A0613046BDE8F081E5686D1CE56013D107
:103D3000606B006838B1502080F31188BFF34F8F5B
:103D4000BFF36F8FFEE7606BA16B6163A063206AB6
:103D5000401C2062FFF7EAFCA06ADFF87C80854205
:103D600009D3606B0068A0B1606BC068C7687868F1
:103D7000854211D2A0622068C06A00EB800158F829
:103D80002100012800D90126E0690028C9D00126B8
:103D9000C7E74FF0FF30EDE7381DFFF78EFDB86A3B
:103DA00018B107F11800FFF788FDF96A01202269B0
:103DB00088401043206101EB810108EB8100391D2F
:103DC000FFF7BEFDF86A2168C96A8842C9D3012697
:103DD000C7E7000078000020F80500202DE9F04733
:103DE0002C4D00242746286B38B1FFF7B5FD286B12
:103DF000401E2863286B40B146E0502080F31188B4
:103E0000BFF34F8FBFF36F8FFEE7A968224E0120EB
:103E1000D1B3A6F1B40980463068E8B1F068C4684F
:103E200004F11800FFF749FD201DFFF746FDE06A89
:103E30002A6908FA00F11143296100EB800109EBBE
:103E40008100211DFFF77CFDE06A2968C96A88426C
:103E5000E2D3C5F81C80DFE70CB1FFF767FCAC6963
:103E600044B14646FFF754FF00B1EE61641EF9D13C
:103E70000020A861E86938B10849012738070860BF
:103E8000BFF34F8FBFF36F8FFFF786FD3846BDE856
:103E9000F087000078000020AC06002004ED00E070
:103EA0004FF00000E1EE100A70470000283F0008C4
:103EB000F1220008020000000000000000040000E1
:103EC00000000000000000001C3F000895240008CE
:103ED00000000000000000000004000000000000DE
:103EE00000000000000000000000000001020304C8
:103EF000060708090000000001020304000000009A
:103F00006E83F9A22915444ED15727FCC0DD34F544
:103F1000999562DB4190433CAB6351FE4D697373ED
:103F2000696F6E5461736B00436861737369735496
:103F300061736B00543F000800000020E0000000A7
:103F4000C401000834400008E00000206848000078
:103F5000E00100080000803E0000803E00000000FC
:103F60000000000000000000000000000000000051
:103F70000000000000000000000000000000000041
:103F80000000000000000000000000000000F042FF
:103F90000000C8420000803E0000803EF6285C3FE2
:103FA000F6285C3F7B14AE3F7B14EE3FA470DD3FF0
:103FB00052B82E4000000000000000000100000088
:103FC00010000000000000000024F40000000000C9
:103FD00000000000000000000000000000000000E1
:103FE00000000000000000000000000000000000D1
:103FF00000000000000000000000000000000000C1
:1040000000000000000000000000000000000000B0
:1040100000000000000000000000000000000000A0
:10402000000000000000000000000000AAAAAAAAE8
:04403000000000008C
:040000050800018965
:00000001FF
